#Counter algoRst algoStart algoDone algoIdle algoReady                  Link_00                  Link_01                  Link_02                  Link_03                  Link_04                  Link_05                  Link_06                  Link_07                  Link_08                  Link_09                  Link_10                  Link_11                  Link_12                  Link_13                  Link_14                  Link_15                  Link_16                  Link_17                  Link_18                  Link_19                  Link_20                  Link_21                  Link_22                  Link_23                  Link_24                  Link_25                  Link_26                  Link_27                  Link_28                  Link_29                  Link_30                  Link_31                  Link_32                  Link_33                  Link_34                  Link_35                  Link_36                  Link_37                  Link_38                  Link_39                  Link_40                  Link_41                  Link_42                  Link_43                  Link_44                  Link_45                  Link_46                  Link_47                  Link_48                  Link_49                  Link_50                  Link_51                  Link_52                  Link_53                  
0x0000       0b0       0b1      0b0      0b0       0b0  0x00 0xXXXXXXXX00000000  0x00 0x000000XXXXXXXXXX  0x00 0xXXXXXXXXXXXXXXXX  0x00 0xXXXXXXXXXXXXXXXX  0x00 0xXXXXXXXXXXXXXXXX  0x00 0xXXXXXXXXXXXXXXXX  0x00 0xXXXXXXXXXXXXXXXX  0x00 0xXXXXXXXXXXXXXXXX  0x00 0xXXXXXXXXXXXXXXXX  0x00 0xXXXXXXXXXXXXXXXX  0x00 0xXXXXXXXXXXXXXXXX  0x00 0xXXXXXXXXXXXXXXXX  0x00 0xXXXXXXXXXXXXXXXX  0x00 0xXXXXXXXXXXXXXXXX  0x00 0xXXXXXXXXXXXXXXXX  0x00 0xXXXXXXXXXXXXXXXX  0x00 0xXXXXXXXXXXXXXXXX  0x0X 0xXXXXXXXXXXXXXXXX  0x01 0x0000000000000000  0x01 0x0000000000000000  0x01 0x0000000000000000  0x01 0x0000000000000000  0x01 0x0000000000000000  0x01 0x0000000000000000  0x01 0x0000000000000000  0x01 0x0000000000000000  0x01 0x0000000000000000  0x01 0x0000000000000000  0x01 0x0000000000000000  0x01 0x0000000000000000  0x01 0x0000000000000000  0x01 0x0000000000000000  0x01 0x0000000000000000  0x01 0x0000000000000000  0x01 0x0000000000000000  0x01 0x0000000000000000  0x01 0x0000000000000000  0x01 0x0000000000000000  0x01 0x0000000000000000  0x01 0x0000000000000000  0x01 0x0000000000000000  0x01 0x0000000000000000  0x01 0x0000000000000000  0x01 0x0000000000000000  0x01 0x0000000000000000  0x01 0x0000000000000000  0x01 0x0000000000000000  0x01 0x0000000000000000  0x01 0x0000000000000000  0x01 0x0000000000000000  0x01 0x0000000000000000  0x01 0x0000000000000000  0x01 0x0000000000000000  0x01 0x0000000000000000  
0x0001       0b0       0b1      0b0      0b0       0b0  0x00 0xXXXXXXXX00000000  0x00 0x000000XXXXXXXXXX  0x00 0xXXXXXXXXXXXXXXXX  0x00 0xXXXXXXXXXXXXXXXX  0x00 0xXXXXXXXXXXXXXXXX  0x00 0xXXXXXXXXXXXXXXXX  0x00 0xXXXXXXXXXXXXXXXX  0x00 0xXXXXXXXXXXXXXXXX  0x00 0xXXXXXXXXXXXXXXXX  0x00 0xXXXXXXXXXXXXXXXX  0x00 0xXXXXXXXXXXXXXXXX  0x00 0xXXXXXXXXXXXXXXXX  0x00 0xXXXXXXXXXXXXXXXX  0x00 0xXXXXXXXXXXXXXXXX  0x00 0xXXXXXXXXXXXXXXXX  0x00 0xXXXXXXXXXXXXXXXX  0x00 0xXXXXXXXXXXXXXXXX  0x0X 0xXXXXXXXXXXXXXXXX  0x01 0x0000000000000001  0x01 0x0000000000000001  0x01 0x0000000000000001  0x01 0x0000000000000001  0x01 0x0000000000000001  0x01 0x0000000000000001  0x01 0x0000000000000001  0x01 0x0000000000000001  0x01 0x0000000000000001  0x01 0x0000000000000001  0x01 0x0000000000000001  0x01 0x0000000000000001  0x01 0x0000000000000001  0x01 0x0000000000000001  0x01 0x0000000000000001  0x01 0x0000000000000001  0x01 0x0000000000000001  0x01 0x0000000000000001  0x01 0x0000000000000001  0x01 0x0000000000000001  0x01 0x0000000000000001  0x01 0x0000000000000001  0x01 0x0000000000000001  0x01 0x0000000000000001  0x01 0x0000000000000001  0x01 0x0000000000000001  0x01 0x0000000000000001  0x01 0x0000000000000001  0x01 0x0000000000000001  0x01 0x0000000000000001  0x01 0x0000000000000001  0x01 0x0000000000000001  0x01 0x0000000000000001  0x01 0x0000000000000001  0x01 0x0000000000000001  0x01 0x0000000000000001  
0x0002       0b0       0b1      0b0      0b0       0b0  0x00 0xXXXXXXXX00000000  0x00 0x000000XXXXXXXXXX  0x00 0xXXXXXXXXXXXXXXXX  0x00 0xXXXXXXXXXXXXXXXX  0x00 0xXXXXXXXXXXXXXXXX  0x00 0xXXXXXXXXXXXXXXXX  0x00 0xXXXXXXXXXXXXXXXX  0x00 0xXXXXXXXXXXXXXXXX  0x00 0xXXXXXXXXXXXXXXXX  0x00 0xXXXXXXXXXXXXXXXX  0x00 0xXXXXXXXXXXXXXXXX  0x00 0xXXXXXXXXXXXXXXXX  0x00 0xXXXXXXXXXXXXXXXX  0x00 0xXXXXXXXXXXXXXXXX  0x00 0xXXXXXXXXXXXXXXXX  0x00 0xXXXXXXXXXXXXXXXX  0x00 0xXXXXXXXXXXXXXXXX  0x0X 0xXXXXXXXXXXXXXXXX  0x01 0x0000000000000002  0x01 0x0000000000000002  0x01 0x0000000000000002  0x01 0x0000000000000002  0x01 0x0000000000000002  0x01 0x0000000000000002  0x01 0x0000000000000002  0x01 0x0000000000000002  0x01 0x0000000000000002  0x01 0x0000000000000002  0x01 0x0000000000000002  0x01 0x0000000000000002  0x01 0x0000000000000002  0x01 0x0000000000000002  0x01 0x0000000000000002  0x01 0x0000000000000002  0x01 0x0000000000000002  0x01 0x0000000000000002  0x01 0x0000000000000002  0x01 0x0000000000000002  0x01 0x0000000000000002  0x01 0x0000000000000002  0x01 0x0000000000000002  0x01 0x0000000000000002  0x01 0x0000000000000002  0x01 0x0000000000000002  0x01 0x0000000000000002  0x01 0x0000000000000002  0x01 0x0000000000000002  0x01 0x0000000000000002  0x01 0x0000000000000002  0x01 0x0000000000000002  0x01 0x0000000000000002  0x01 0x0000000000000002  0x01 0x0000000000000002  0x01 0x0000000000000002  
0x0003       0b0       0b1      0b0      0b0       0b0  0x00 0xXXXXXXXX00000000  0x00 0x000000XXXXXXXXXX  0x00 0xXXXXXXXXXXXXXXXX  0x00 0xXXXXXXXXXXXXXXXX  0x00 0xXXXXXXXXXXXXXXXX  0x00 0xXXXXXXXXXXXXXXXX  0x00 0xXXXXXXXXXXXXXXXX  0x00 0xXXXXXXXXXXXXXXXX  0x00 0xXXXXXXXXXXXXXXXX  0x00 0xXXXXXXXXXXXXXXXX  0x00 0xXXXXXXXXXXXXXXXX  0x00 0xXXXXXXXXXXXXXXXX  0x00 0xXXXXXXXXXXXXXXXX  0x00 0xXXXXXXXXXXXXXXXX  0x00 0xXXXXXXXXXXXXXXXX  0x00 0xXXXXXXXXXXXXXXXX  0x00 0xXXXXXXXXXXXXXXXX  0x0X 0xXXXXXXXXXXXXXXXX  0x01 0x0000000000000003  0x01 0x0000000000000003  0x01 0x0000000000000003  0x01 0x0000000000000003  0x01 0x0000000000000003  0x01 0x0000000000000003  0x01 0x0000000000000003  0x01 0x0000000000000003  0x01 0x0000000000000003  0x01 0x0000000000000003  0x01 0x0000000000000003  0x01 0x0000000000000003  0x01 0x0000000000000003  0x01 0x0000000000000003  0x01 0x0000000000000003  0x01 0x0000000000000003  0x01 0x0000000000000003  0x01 0x0000000000000003  0x01 0x0000000000000003  0x01 0x0000000000000003  0x01 0x0000000000000003  0x01 0x0000000000000003  0x01 0x0000000000000003  0x01 0x0000000000000003  0x01 0x0000000000000003  0x01 0x0000000000000003  0x01 0x0000000000000003  0x01 0x0000000000000003  0x01 0x0000000000000003  0x01 0x0000000000000003  0x01 0x0000000000000003  0x01 0x0000000000000003  0x01 0x0000000000000003  0x01 0x0000000000000003  0x01 0x0000000000000003  0x01 0x0000000000000003  
0x0004       0b0       0b1      0b0      0b0       0b0  0x00 0xXXXXXXXX00000000  0x00 0x000000XXXXXXXXXX  0x00 0xXXXXXXXXXXXXXXXX  0x00 0xXXXXXXXXXXXXXXXX  0x00 0xXXXXXXXXXXXXXXXX  0x00 0xXXXXXXXXXXXXXXXX  0x00 0xXXXXXXXXXXXXXXXX  0x00 0xXXXXXXXXXXXXXXXX  0x00 0xXXXXXXXXXXXXXXXX  0x00 0xXXXXXXXXXXXXXXXX  0x00 0xXXXXXXXXXXXXXXXX  0x00 0xXXXXXXXXXXXXXXXX  0x00 0xXXXXXXXXXXXXXXXX  0x00 0xXXXXXXXXXXXXXXXX  0x00 0xXXXXXXXXXXXXXXXX  0x00 0xXXXXXXXXXXXXXXXX  0x00 0xXXXXXXXXXXXXXXXX  0x0X 0xXXXXXXXXXXXXXXXX  0x01 0x0000000000000004  0x01 0x0000000000000004  0x01 0x0000000000000004  0x01 0x0000000000000004  0x01 0x0000000000000004  0x01 0x0000000000000004  0x01 0x0000000000000004  0x01 0x0000000000000004  0x01 0x0000000000000004  0x01 0x0000000000000004  0x01 0x0000000000000004  0x01 0x0000000000000004  0x01 0x0000000000000004  0x01 0x0000000000000004  0x01 0x0000000000000004  0x01 0x0000000000000004  0x01 0x0000000000000004  0x01 0x0000000000000004  0x01 0x0000000000000004  0x01 0x0000000000000004  0x01 0x0000000000000004  0x01 0x0000000000000004  0x01 0x0000000000000004  0x01 0x0000000000000004  0x01 0x0000000000000004  0x01 0x0000000000000004  0x01 0x0000000000000004  0x01 0x0000000000000004  0x01 0x0000000000000004  0x01 0x0000000000000004  0x01 0x0000000000000004  0x01 0x0000000000000004  0x01 0x0000000000000004  0x01 0x0000000000000004  0x01 0x0000000000000004  0x01 0x0000000000000004  
0x0005       0b0       0b1      0b0      0b0       0b0  0x00 0xXXXXXXXX00000000  0x00 0x000000XXXXXXXXXX  0x00 0xXXXXXXXXXXXXXXXX  0x00 0xXXXXXXXXXXXXXXXX  0x00 0xXXXXXXXXXXXXXXXX  0x00 0xXXXXXXXXXXXXXXXX  0x00 0xXXXXXXXXXXXXXXXX  0x00 0xXXXXXXXXXXXXXXXX  0x00 0xXXXXXXXXXXXXXXXX  0x00 0xXXXXXXXXXXXXXXXX  0x00 0xXXXXXXXXXXXXXXXX  0x00 0xXXXXXXXXXXXXXXXX  0x00 0xXXXXXXXXXXXXXXXX  0x00 0xXXXXXXXXXXXXXXXX  0x00 0xXXXXXXXXXXXXXXXX  0x00 0xXXXXXXXXXXXXXXXX  0x00 0xXXXXXXXXXXXXXXXX  0x0X 0xXXXXXXXXXXXXXXXX  0x01 0x0000000000000005  0x01 0x0000000000000005  0x01 0x0000000000000005  0x01 0x0000000000000005  0x01 0x0000000000000005  0x01 0x0000000000000005  0x01 0x0000000000000005  0x01 0x0000000000000005  0x01 0x0000000000000005  0x01 0x0000000000000005  0x01 0x0000000000000005  0x01 0x0000000000000005  0x01 0x0000000000000005  0x01 0x0000000000000005  0x01 0x0000000000000005  0x01 0x0000000000000005  0x01 0x0000000000000005  0x01 0x0000000000000005  0x01 0x0000000000000005  0x01 0x0000000000000005  0x01 0x0000000000000005  0x01 0x0000000000000005  0x01 0x0000000000000005  0x01 0x0000000000000005  0x01 0x0000000000000005  0x01 0x0000000000000005  0x01 0x0000000000000005  0x01 0x0000000000000005  0x01 0x0000000000000005  0x01 0x0000000000000005  0x01 0x0000000000000005  0x01 0x0000000000000005  0x01 0x0000000000000005  0x01 0x0000000000000005  0x01 0x0000000000000005  0x01 0x0000000000000005  
0x0006       0b0       0b1      0b0      0b0       0b0  0x00 0xXXXXXXXX00000000  0x00 0x000000XXXXXXXXXX  0x00 0xXXXXXXXXXXXXXXXX  0x00 0xXXXXXXXXXXXXXXXX  0x00 0xXXXXXXXXXXXXXXXX  0x00 0xXXXXXXXXXXXXXXXX  0x00 0xXXXXXXXXXXXXXXXX  0x00 0xXXXXXXXXXXXXXXXX  0x00 0xXXXXXXXXXXXXXXXX  0x00 0xXXXXXXXXXXXXXXXX  0x00 0xXXXXXXXXXXXXXXXX  0x00 0xXXXXXXXXXXXXXXXX  0x00 0xXXXXXXXXXXXXXXXX  0x00 0xXXXXXXXXXXXXXXXX  0x00 0xXXXXXXXXXXXXXXXX  0x00 0xXXXXXXXXXXXXXXXX  0x00 0xXXXXXXXXXXXXXXXX  0x0X 0xXXXXXXXXXXXXXXXX  0x01 0x0000000000000006  0x01 0x0000000000000006  0x01 0x0000000000000006  0x01 0x0000000000000006  0x01 0x0000000000000006  0x01 0x0000000000000006  0x01 0x0000000000000006  0x01 0x0000000000000006  0x01 0x0000000000000006  0x01 0x0000000000000006  0x01 0x0000000000000006  0x01 0x0000000000000006  0x01 0x0000000000000006  0x01 0x0000000000000006  0x01 0x0000000000000006  0x01 0x0000000000000006  0x01 0x0000000000000006  0x01 0x0000000000000006  0x01 0x0000000000000006  0x01 0x0000000000000006  0x01 0x0000000000000006  0x01 0x0000000000000006  0x01 0x0000000000000006  0x01 0x0000000000000006  0x01 0x0000000000000006  0x01 0x0000000000000006  0x01 0x0000000000000006  0x01 0x0000000000000006  0x01 0x0000000000000006  0x01 0x0000000000000006  0x01 0x0000000000000006  0x01 0x0000000000000006  0x01 0x0000000000000006  0x01 0x0000000000000006  0x01 0x0000000000000006  0x01 0x0000000000000006  
0x0007       0b0       0b1      0b0      0b0       0b0  0x00 0xXXXXXXXX00000000  0x00 0x000000XXXXXXXXXX  0x00 0xXXXXXXXXXXXXXXXX  0x00 0xXXXXXXXXXXXXXXXX  0x00 0xXXXXXXXXXXXXXXXX  0x00 0xXXXXXXXXXXXXXXXX  0x00 0xXXXXXXXXXXXXXXXX  0x00 0xXXXXXXXXXXXXXXXX  0x00 0xXXXXXXXXXXXXXXXX  0x00 0xXXXXXXXXXXXXXXXX  0x00 0xXXXXXXXXXXXXXXXX  0x00 0xXXXXXXXXXXXXXXXX  0x00 0xXXXXXXXXXXXXXXXX  0x00 0xXXXXXXXXXXXXXXXX  0x00 0xXXXXXXXXXXXXXXXX  0x00 0xXXXXXXXXXXXXXXXX  0x00 0xXXXXXXXXXXXXXXXX  0x0X 0xXXXXXXXXXXXXXXXX  0x01 0x0000000000000007  0x01 0x0000000000000007  0x01 0x0000000000000007  0x01 0x0000000000000007  0x01 0x0000000000000007  0x01 0x0000000000000007  0x01 0x0000000000000007  0x01 0x0000000000000007  0x01 0x0000000000000007  0x01 0x0000000000000007  0x01 0x0000000000000007  0x01 0x0000000000000007  0x01 0x0000000000000007  0x01 0x0000000000000007  0x01 0x0000000000000007  0x01 0x0000000000000007  0x01 0x0000000000000007  0x01 0x0000000000000007  0x01 0x0000000000000007  0x01 0x0000000000000007  0x01 0x0000000000000007  0x01 0x0000000000000007  0x01 0x0000000000000007  0x01 0x0000000000000007  0x01 0x0000000000000007  0x01 0x0000000000000007  0x01 0x0000000000000007  0x01 0x0000000000000007  0x01 0x0000000000000007  0x01 0x0000000000000007  0x01 0x0000000000000007  0x01 0x0000000000000007  0x01 0x0000000000000007  0x01 0x0000000000000007  0x01 0x0000000000000007  0x01 0x0000000000000007  
0x0008       0b0       0b1      0b0      0b0       0b0  0x00 0xXXXXXXXX00000000  0x00 0x000000XXXXXXXXXX  0x00 0xXXXXXXXXXXXXXXXX  0x00 0xXXXXXXXXXXXXXXXX  0x00 0xXXXXXXXXXXXXXXXX  0x00 0xXXXXXXXXXXXXXXXX  0x00 0xXXXXXXXXXXXXXXXX  0x00 0xXXXXXXXXXXXXXXXX  0x00 0xXXXXXXXXXXXXXXXX  0x00 0xXXXXXXXXXXXXXXXX  0x00 0xXXXXXXXXXXXXXXXX  0x00 0xXXXXXXXXXXXXXXXX  0x00 0xXXXXXXXXXXXXXXXX  0x00 0xXXXXXXXXXXXXXXXX  0x00 0xXXXXXXXXXXXXXXXX  0x00 0xXXXXXXXXXXXXXXXX  0x00 0xXXXXXXXXXXXXXXXX  0x0X 0xXXXXXXXXXXXXXXXX  0x01 0x0000000000000008  0x01 0x0000000000000008  0x01 0x0000000000000008  0x01 0x0000000000000008  0x01 0x0000000000000008  0x01 0x0000000000000008  0x01 0x0000000000000008  0x01 0x0000000000000008  0x01 0x0000000000000008  0x01 0x0000000000000008  0x01 0x0000000000000008  0x01 0x0000000000000008  0x01 0x0000000000000008  0x01 0x0000000000000008  0x01 0x0000000000000008  0x01 0x0000000000000008  0x01 0x0000000000000008  0x01 0x0000000000000008  0x01 0x0000000000000008  0x01 0x0000000000000008  0x01 0x0000000000000008  0x01 0x0000000000000008  0x01 0x0000000000000008  0x01 0x0000000000000008  0x01 0x0000000000000008  0x01 0x0000000000000008  0x01 0x0000000000000008  0x01 0x0000000000000008  0x01 0x0000000000000008  0x01 0x0000000000000008  0x01 0x0000000000000008  0x01 0x0000000000000008  0x01 0x0000000000000008  0x01 0x0000000000000008  0x01 0x0000000000000008  0x01 0x0000000000000008  
0x0009       0b0       0b1      0b0      0b0       0b0  0x00 0xXXXXXXXX00000000  0x00 0x000000XXXXXXXXXX  0x00 0xXXXXXXXXXXXXXXXX  0x00 0xXXXXXXXXXXXXXXXX  0x00 0xXXXXXXXXXXXXXXXX  0x00 0xXXXXXXXXXXXXXXXX  0x00 0xXXXXXXXXXXXXXXXX  0x00 0xXXXXXXXXXXXXXXXX  0x00 0xXXXXXXXXXXXXXXXX  0x00 0xXXXXXXXXXXXXXXXX  0x00 0xXXXXXXXXXXXXXXXX  0x00 0xXXXXXXXXXXXXXXXX  0x00 0xXXXXXXXXXXXXXXXX  0x00 0xXXXXXXXXXXXXXXXX  0x00 0xXXXXXXXXXXXXXXXX  0x00 0xXXXXXXXXXXXXXXXX  0x00 0xXXXXXXXXXXXXXXXX  0x0X 0xXXXXXXXXXXXXXXXX  0x01 0x0000000000000009  0x01 0x0000000000000009  0x01 0x0000000000000009  0x01 0x0000000000000009  0x01 0x0000000000000009  0x01 0x0000000000000009  0x01 0x0000000000000009  0x01 0x0000000000000009  0x01 0x0000000000000009  0x01 0x0000000000000009  0x01 0x0000000000000009  0x01 0x0000000000000009  0x01 0x0000000000000009  0x01 0x0000000000000009  0x01 0x0000000000000009  0x01 0x0000000000000009  0x01 0x0000000000000009  0x01 0x0000000000000009  0x01 0x0000000000000009  0x01 0x0000000000000009  0x01 0x0000000000000009  0x01 0x0000000000000009  0x01 0x0000000000000009  0x01 0x0000000000000009  0x01 0x0000000000000009  0x01 0x0000000000000009  0x01 0x0000000000000009  0x01 0x0000000000000009  0x01 0x0000000000000009  0x01 0x0000000000000009  0x01 0x0000000000000009  0x01 0x0000000000000009  0x01 0x0000000000000009  0x01 0x0000000000000009  0x01 0x0000000000000009  0x01 0x0000000000000009  
0x000A       0b0       0b1      0b0      0b0       0b0  0x00 0xXXXXXXXX00000000  0x00 0x000000XXXXXXXXXX  0x00 0xXXXXXXXXXXXXXXXX  0x00 0xXXXXXXXXXXXXXXXX  0x00 0xXXXXXXXXXXXXXXXX  0x00 0xXXXXXXXXXXXXXXXX  0x00 0xXXXXXXXXXXXXXXXX  0x00 0xXXXXXXXXXXXXXXXX  0x00 0xXXXXXXXXXXXXXXXX  0x00 0xXXXXXXXXXXXXXXXX  0x00 0xXXXXXXXXXXXXXXXX  0x00 0xXXXXXXXXXXXXXXXX  0x00 0xXXXXXXXXXXXXXXXX  0x00 0xXXXXXXXXXXXXXXXX  0x00 0xXXXXXXXXXXXXXXXX  0x00 0xXXXXXXXXXXXXXXXX  0x00 0xXXXXXXXXXXXXXXXX  0x0X 0xXXXXXXXXXXXXXXXX  0x01 0x000000000000000A  0x01 0x000000000000000A  0x01 0x000000000000000A  0x01 0x000000000000000A  0x01 0x000000000000000A  0x01 0x000000000000000A  0x01 0x000000000000000A  0x01 0x000000000000000A  0x01 0x000000000000000A  0x01 0x000000000000000A  0x01 0x000000000000000A  0x01 0x000000000000000A  0x01 0x000000000000000A  0x01 0x000000000000000A  0x01 0x000000000000000A  0x01 0x000000000000000A  0x01 0x000000000000000A  0x01 0x000000000000000A  0x01 0x000000000000000A  0x01 0x000000000000000A  0x01 0x000000000000000A  0x01 0x000000000000000A  0x01 0x000000000000000A  0x01 0x000000000000000A  0x01 0x000000000000000A  0x01 0x000000000000000A  0x01 0x000000000000000A  0x01 0x000000000000000A  0x01 0x000000000000000A  0x01 0x000000000000000A  0x01 0x000000000000000A  0x01 0x000000000000000A  0x01 0x000000000000000A  0x01 0x000000000000000A  0x01 0x000000000000000A  0x01 0x000000000000000A  
0x000B       0b0       0b1      0b0      0b0       0b0  0x00 0xXXXXXXXX00000000  0x00 0x000000XXXXXXXXXX  0x00 0xXXXXXXXXXXXXXXXX  0x00 0xXXXXXXXXXXXXXXXX  0x00 0xXXXXXXXXXXXXXXXX  0x00 0xXXXXXXXXXXXXXXXX  0x00 0xXXXXXXXXXXXXXXXX  0x00 0xXXXXXXXXXXXXXXXX  0x00 0xXXXXXXXXXXXXXXXX  0x00 0xXXXXXXXXXXXXXXXX  0x00 0xXXXXXXXXXXXXXXXX  0x00 0xXXXXXXXXXXXXXXXX  0x00 0xXXXXXXXXXXXXXXXX  0x00 0xXXXXXXXXXXXXXXXX  0x00 0xXXXXXXXXXXXXXXXX  0x00 0xXXXXXXXXXXXXXXXX  0x00 0xXXXXXXXXXXXXXXXX  0x0X 0xXXXXXXXXXXXXXXXX  0x01 0x000000000000000B  0x01 0x000000000000000B  0x01 0x000000000000000B  0x01 0x000000000000000B  0x01 0x000000000000000B  0x01 0x000000000000000B  0x01 0x000000000000000B  0x01 0x000000000000000B  0x01 0x000000000000000B  0x01 0x000000000000000B  0x01 0x000000000000000B  0x01 0x000000000000000B  0x01 0x000000000000000B  0x01 0x000000000000000B  0x01 0x000000000000000B  0x01 0x000000000000000B  0x01 0x000000000000000B  0x01 0x000000000000000B  0x01 0x000000000000000B  0x01 0x000000000000000B  0x01 0x000000000000000B  0x01 0x000000000000000B  0x01 0x000000000000000B  0x01 0x000000000000000B  0x01 0x000000000000000B  0x01 0x000000000000000B  0x01 0x000000000000000B  0x01 0x000000000000000B  0x01 0x000000000000000B  0x01 0x000000000000000B  0x01 0x000000000000000B  0x01 0x000000000000000B  0x01 0x000000000000000B  0x01 0x000000000000000B  0x01 0x000000000000000B  0x01 0x000000000000000B  
0x000C       0b0       0b1      0b0      0b0       0b0  0x00 0xXXXXXXXX00000000  0x00 0x000000XXXXXXXXXX  0x00 0xXXXXXXXXXXXXXXXX  0x00 0xXXXXXXXXXXXXXXXX  0x00 0xXXXXXXXXXXXXXXXX  0x00 0xXXXXXXXXXXXXXXXX  0x00 0xXXXXXXXXXXXXXXXX  0x00 0xXXXXXXXXXXXXXXXX  0x00 0xXXXXXXXXXXXXXXXX  0x00 0xXXXXXXXXXXXXXXXX  0x00 0xXXXXXXXXXXXXXXXX  0x00 0xXXXXXXXXXXXXXXXX  0x00 0xXXXXXXXXXXXXXXXX  0x00 0xXXXXXXXXXXXXXXXX  0x00 0xXXXXXXXXXXXXXXXX  0x00 0xXXXXXXXXXXXXXXXX  0x00 0xXXXXXXXXXXXXXXXX  0x0X 0xXXXXXXXXXXXXXXXX  0x01 0x000000000000000C  0x01 0x000000000000000C  0x01 0x000000000000000C  0x01 0x000000000000000C  0x01 0x000000000000000C  0x01 0x000000000000000C  0x01 0x000000000000000C  0x01 0x000000000000000C  0x01 0x000000000000000C  0x01 0x000000000000000C  0x01 0x000000000000000C  0x01 0x000000000000000C  0x01 0x000000000000000C  0x01 0x000000000000000C  0x01 0x000000000000000C  0x01 0x000000000000000C  0x01 0x000000000000000C  0x01 0x000000000000000C  0x01 0x000000000000000C  0x01 0x000000000000000C  0x01 0x000000000000000C  0x01 0x000000000000000C  0x01 0x000000000000000C  0x01 0x000000000000000C  0x01 0x000000000000000C  0x01 0x000000000000000C  0x01 0x000000000000000C  0x01 0x000000000000000C  0x01 0x000000000000000C  0x01 0x000000000000000C  0x01 0x000000000000000C  0x01 0x000000000000000C  0x01 0x000000000000000C  0x01 0x000000000000000C  0x01 0x000000000000000C  0x01 0x000000000000000C  
0x000D       0b0       0b1      0b0      0b0       0b0  0x00 0xXXXXXXXX00000000  0x00 0x000000XXXXXXXXXX  0x00 0xXXXXXXXXXXXXXXXX  0x00 0xXXXXXXXXXXXXXXXX  0x00 0xXXXXXXXXXXXXXXXX  0x00 0xXXXXXXXXXXXXXXXX  0x00 0xXXXXXXXXXXXXXXXX  0x00 0xXXXXXXXXXXXXXXXX  0x00 0xXXXXXXXXXXXXXXXX  0x00 0xXXXXXXXXXXXXXXXX  0x00 0xXXXXXXXXXXXXXXXX  0x00 0xXXXXXXXXXXXXXXXX  0x00 0xXXXXXXXXXXXXXXXX  0x00 0xXXXXXXXXXXXXXXXX  0x00 0xXXXXXXXXXXXXXXXX  0x00 0xXXXXXXXXXXXXXXXX  0x00 0xXXXXXXXXXXXXXXXX  0x0X 0xXXXXXXXXXXXXXXXX  0x01 0x000000000000000D  0x01 0x000000000000000D  0x01 0x000000000000000D  0x01 0x000000000000000D  0x01 0x000000000000000D  0x01 0x000000000000000D  0x01 0x000000000000000D  0x01 0x000000000000000D  0x01 0x000000000000000D  0x01 0x000000000000000D  0x01 0x000000000000000D  0x01 0x000000000000000D  0x01 0x000000000000000D  0x01 0x000000000000000D  0x01 0x000000000000000D  0x01 0x000000000000000D  0x01 0x000000000000000D  0x01 0x000000000000000D  0x01 0x000000000000000D  0x01 0x000000000000000D  0x01 0x000000000000000D  0x01 0x000000000000000D  0x01 0x000000000000000D  0x01 0x000000000000000D  0x01 0x000000000000000D  0x01 0x000000000000000D  0x01 0x000000000000000D  0x01 0x000000000000000D  0x01 0x000000000000000D  0x01 0x000000000000000D  0x01 0x000000000000000D  0x01 0x000000000000000D  0x01 0x000000000000000D  0x01 0x000000000000000D  0x01 0x000000000000000D  0x01 0x000000000000000D  
0x000E       0b0       0b1      0b0      0b0       0b0  0x00 0xXXXXXXXX00000000  0x00 0x000000XXXXXXXXXX  0x00 0xXXXXXXXXXXXXXXXX  0x00 0xXXXXXXXXXXXXXXXX  0x00 0xXXXXXXXXXXXXXXXX  0x00 0xXXXXXXXXXXXXXXXX  0x00 0xXXXXXXXXXXXXXXXX  0x00 0xXXXXXXXXXXXXXXXX  0x00 0xXXXXXXXXXXXXXXXX  0x00 0xXXXXXXXXXXXXXXXX  0x00 0xXXXXXXXXXXXXXXXX  0x00 0xXXXXXXXXXXXXXXXX  0x00 0xXXXXXXXXXXXXXXXX  0x00 0xXXXXXXXXXXXXXXXX  0x00 0xXXXXXXXXXXXXXXXX  0x00 0xXXXXXXXXXXXXXXXX  0x00 0xXXXXXXXXXXXXXXXX  0x0X 0xXXXXXXXXXXXXXXXX  0x01 0x000000000000000E  0x01 0x000000000000000E  0x01 0x000000000000000E  0x01 0x000000000000000E  0x01 0x000000000000000E  0x01 0x000000000000000E  0x01 0x000000000000000E  0x01 0x000000000000000E  0x01 0x000000000000000E  0x01 0x000000000000000E  0x01 0x000000000000000E  0x01 0x000000000000000E  0x01 0x000000000000000E  0x01 0x000000000000000E  0x01 0x000000000000000E  0x01 0x000000000000000E  0x01 0x000000000000000E  0x01 0x000000000000000E  0x01 0x000000000000000E  0x01 0x000000000000000E  0x01 0x000000000000000E  0x01 0x000000000000000E  0x01 0x000000000000000E  0x01 0x000000000000000E  0x01 0x000000000000000E  0x01 0x000000000000000E  0x01 0x000000000000000E  0x01 0x000000000000000E  0x01 0x000000000000000E  0x01 0x000000000000000E  0x01 0x000000000000000E  0x01 0x000000000000000E  0x01 0x000000000000000E  0x01 0x000000000000000E  0x01 0x000000000000000E  0x01 0x000000000000000E  
0x000F       0b0       0b1      0b0      0b0       0b0  0x00 0xXXXXXXXX00000000  0x00 0x000000XXXXXXXXXX  0x00 0xXXXXXXXXXXXXXXXX  0x00 0xXXXXXXXXXXXXXXXX  0x00 0xXXXXXXXXXXXXXXXX  0x00 0xXXXXXXXXXXXXXXXX  0x00 0xXXXXXXXXXXXXXXXX  0x00 0xXXXXXXXXXXXXXXXX  0x00 0xXXXXXXXXXXXXXXXX  0x00 0xXXXXXXXXXXXXXXXX  0x00 0xXXXXXXXXXXXXXXXX  0x00 0xXXXXXXXXXXXXXXXX  0x00 0xXXXXXXXXXXXXXXXX  0x00 0xXXXXXXXXXXXXXXXX  0x00 0xXXXXXXXXXXXXXXXX  0x00 0xXXXXXXXXXXXXXXXX  0x00 0xXXXXXXXXXXXXXXXX  0x0X 0xXXXXXXXXXXXXXXXX  0x01 0x000000000000000F  0x01 0x000000000000000F  0x01 0x000000000000000F  0x01 0x000000000000000F  0x01 0x000000000000000F  0x01 0x000000000000000F  0x01 0x000000000000000F  0x01 0x000000000000000F  0x01 0x000000000000000F  0x01 0x000000000000000F  0x01 0x000000000000000F  0x01 0x000000000000000F  0x01 0x000000000000000F  0x01 0x000000000000000F  0x01 0x000000000000000F  0x01 0x000000000000000F  0x01 0x000000000000000F  0x01 0x000000000000000F  0x01 0x000000000000000F  0x01 0x000000000000000F  0x01 0x000000000000000F  0x01 0x000000000000000F  0x01 0x000000000000000F  0x01 0x000000000000000F  0x01 0x000000000000000F  0x01 0x000000000000000F  0x01 0x000000000000000F  0x01 0x000000000000000F  0x01 0x000000000000000F  0x01 0x000000000000000F  0x01 0x000000000000000F  0x01 0x000000000000000F  0x01 0x000000000000000F  0x01 0x000000000000000F  0x01 0x000000000000000F  0x01 0x000000000000000F  
0x0010       0b0       0b1      0b0      0b0       0b0  0x00 0xXXXXXXXX00000000  0x00 0x000000XXXXXXXXXX  0x00 0xXXXXXXXXXXXXXXXX  0x00 0xXXXXXXXXXXXXXXXX  0x00 0xXXXXXXXXXXXXXXXX  0x00 0xXXXXXXXXXXXXXXXX  0x00 0xXXXXXXXXXXXXXXXX  0x00 0xXXXXXXXXXXXXXXXX  0x00 0xXXXXXXXXXXXXXXXX  0x00 0xXXXXXXXXXXXXXXXX  0x00 0xXXXXXXXXXXXXXXXX  0x00 0xXXXXXXXXXXXXXXXX  0x00 0xXXXXXXXXXXXXXXXX  0x00 0xXXXXXXXXXXXXXXXX  0x00 0xXXXXXXXXXXXXXXXX  0x00 0xXXXXXXXXXXXXXXXX  0x00 0xXXXXXXXXXXXXXXXX  0x0X 0xXXXXXXXXXXXXXXXX  0x01 0x0000000000000010  0x01 0x0000000000000010  0x01 0x0000000000000010  0x01 0x0000000000000010  0x01 0x0000000000000010  0x01 0x0000000000000010  0x01 0x0000000000000010  0x01 0x0000000000000010  0x01 0x0000000000000010  0x01 0x0000000000000010  0x01 0x0000000000000010  0x01 0x0000000000000010  0x01 0x0000000000000010  0x01 0x0000000000000010  0x01 0x0000000000000010  0x01 0x0000000000000010  0x01 0x0000000000000010  0x01 0x0000000000000010  0x01 0x0000000000000010  0x01 0x0000000000000010  0x01 0x0000000000000010  0x01 0x0000000000000010  0x01 0x0000000000000010  0x01 0x0000000000000010  0x01 0x0000000000000010  0x01 0x0000000000000010  0x01 0x0000000000000010  0x01 0x0000000000000010  0x01 0x0000000000000010  0x01 0x0000000000000010  0x01 0x0000000000000010  0x01 0x0000000000000010  0x01 0x0000000000000010  0x01 0x0000000000000010  0x01 0x0000000000000010  0x01 0x0000000000000010  
0x0011       0b0       0b1      0b0      0b0       0b0  0x00 0xXXXXXXXX00000000  0x00 0x000000XXXXXXXXXX  0x00 0xXXXXXXXXXXXXXXXX  0x00 0xXXXXXXXXXXXXXXXX  0x00 0xXXXXXXXXXXXXXXXX  0x00 0xXXXXXXXXXXXXXXXX  0x00 0xXXXXXXXXXXXXXXXX  0x00 0xXXXXXXXXXXXXXXXX  0x00 0xXXXXXXXXXXXXXXXX  0x00 0xXXXXXXXXXXXXXXXX  0x00 0xXXXXXXXXXXXXXXXX  0x00 0xXXXXXXXXXXXXXXXX  0x00 0xXXXXXXXXXXXXXXXX  0x00 0xXXXXXXXXXXXXXXXX  0x00 0xXXXXXXXXXXXXXXXX  0x00 0xXXXXXXXXXXXXXXXX  0x00 0xXXXXXXXXXXXXXXXX  0x0X 0xXXXXXXXXXXXXXXXX  0x01 0x0000000000000011  0x01 0x0000000000000011  0x01 0x0000000000000011  0x01 0x0000000000000011  0x01 0x0000000000000011  0x01 0x0000000000000011  0x01 0x0000000000000011  0x01 0x0000000000000011  0x01 0x0000000000000011  0x01 0x0000000000000011  0x01 0x0000000000000011  0x01 0x0000000000000011  0x01 0x0000000000000011  0x01 0x0000000000000011  0x01 0x0000000000000011  0x01 0x0000000000000011  0x01 0x0000000000000011  0x01 0x0000000000000011  0x01 0x0000000000000011  0x01 0x0000000000000011  0x01 0x0000000000000011  0x01 0x0000000000000011  0x01 0x0000000000000011  0x01 0x0000000000000011  0x01 0x0000000000000011  0x01 0x0000000000000011  0x01 0x0000000000000011  0x01 0x0000000000000011  0x01 0x0000000000000011  0x01 0x0000000000000011  0x01 0x0000000000000011  0x01 0x0000000000000011  0x01 0x0000000000000011  0x01 0x0000000000000011  0x01 0x0000000000000011  0x01 0x0000000000000011  
0x0012       0b0       0b1      0b0      0b0       0b0  0x00 0xXXXXXXXX00000000  0x00 0x000000XXXXXXXXXX  0x00 0xXXXXXXXXXXXXXXXX  0x00 0xXXXXXXXXXXXXXXXX  0x00 0xXXXXXXXXXXXXXXXX  0x00 0xXXXXXXXXXXXXXXXX  0x00 0xXXXXXXXXXXXXXXXX  0x00 0xXXXXXXXXXXXXXXXX  0x00 0xXXXXXXXXXXXXXXXX  0x00 0xXXXXXXXXXXXXXXXX  0x00 0xXXXXXXXXXXXXXXXX  0x00 0xXXXXXXXXXXXXXXXX  0x00 0xXXXXXXXXXXXXXXXX  0x00 0xXXXXXXXXXXXXXXXX  0x00 0xXXXXXXXXXXXXXXXX  0x00 0xXXXXXXXXXXXXXXXX  0x00 0xXXXXXXXXXXXXXXXX  0x0X 0xXXXXXXXXXXXXXXXX  0x01 0x0000000000000012  0x01 0x0000000000000012  0x01 0x0000000000000012  0x01 0x0000000000000012  0x01 0x0000000000000012  0x01 0x0000000000000012  0x01 0x0000000000000012  0x01 0x0000000000000012  0x01 0x0000000000000012  0x01 0x0000000000000012  0x01 0x0000000000000012  0x01 0x0000000000000012  0x01 0x0000000000000012  0x01 0x0000000000000012  0x01 0x0000000000000012  0x01 0x0000000000000012  0x01 0x0000000000000012  0x01 0x0000000000000012  0x01 0x0000000000000012  0x01 0x0000000000000012  0x01 0x0000000000000012  0x01 0x0000000000000012  0x01 0x0000000000000012  0x01 0x0000000000000012  0x01 0x0000000000000012  0x01 0x0000000000000012  0x01 0x0000000000000012  0x01 0x0000000000000012  0x01 0x0000000000000012  0x01 0x0000000000000012  0x01 0x0000000000000012  0x01 0x0000000000000012  0x01 0x0000000000000012  0x01 0x0000000000000012  0x01 0x0000000000000012  0x01 0x0000000000000012  
0x0013       0b0       0b1      0b0      0b0       0b0  0x00 0xXXXXXXXX00000000  0x00 0x000000XXXXXXXXXX  0x00 0xXXXXXXXXXXXXXXXX  0x00 0xXXXXXXXXXXXXXXXX  0x00 0xXXXXXXXXXXXXXXXX  0x00 0xXXXXXXXXXXXXXXXX  0x00 0xXXXXXXXXXXXXXXXX  0x00 0xXXXXXXXXXXXXXXXX  0x00 0xXXXXXXXXXXXXXXXX  0x00 0xXXXXXXXXXXXXXXXX  0x00 0xXXXXXXXXXXXXXXXX  0x00 0xXXXXXXXXXXXXXXXX  0x00 0xXXXXXXXXXXXXXXXX  0x00 0xXXXXXXXXXXXXXXXX  0x00 0xXXXXXXXXXXXXXXXX  0x00 0xXXXXXXXXXXXXXXXX  0x00 0xXXXXXXXXXXXXXXXX  0x0X 0xXXXXXXXXXXXXXXXX  0x01 0x0000000000000013  0x01 0x0000000000000013  0x01 0x0000000000000013  0x01 0x0000000000000013  0x01 0x0000000000000013  0x01 0x0000000000000013  0x01 0x0000000000000013  0x01 0x0000000000000013  0x01 0x0000000000000013  0x01 0x0000000000000013  0x01 0x0000000000000013  0x01 0x0000000000000013  0x01 0x0000000000000013  0x01 0x0000000000000013  0x01 0x0000000000000013  0x01 0x0000000000000013  0x01 0x0000000000000013  0x01 0x0000000000000013  0x01 0x0000000000000013  0x01 0x0000000000000013  0x01 0x0000000000000013  0x01 0x0000000000000013  0x01 0x0000000000000013  0x01 0x0000000000000013  0x01 0x0000000000000013  0x01 0x0000000000000013  0x01 0x0000000000000013  0x01 0x0000000000000013  0x01 0x0000000000000013  0x01 0x0000000000000013  0x01 0x0000000000000013  0x01 0x0000000000000013  0x01 0x0000000000000013  0x01 0x0000000000000013  0x01 0x0000000000000013  0x01 0x0000000000000013  
0x0014       0b0       0b1      0b0      0b0       0b0  0x00 0xXXXXXXXX00000000  0x00 0x000000XXXXXXXXXX  0x00 0xXXXXXXXXXXXXXXXX  0x00 0xXXXXXXXXXXXXXXXX  0x00 0xXXXXXXXXXXXXXXXX  0x00 0xXXXXXXXXXXXXXXXX  0x00 0xXXXXXXXXXXXXXXXX  0x00 0xXXXXXXXXXXXXXXXX  0x00 0xXXXXXXXXXXXXXXXX  0x00 0xXXXXXXXXXXXXXXXX  0x00 0xXXXXXXXXXXXXXXXX  0x00 0xXXXXXXXXXXXXXXXX  0x00 0xXXXXXXXXXXXXXXXX  0x00 0xXXXXXXXXXXXXXXXX  0x00 0xXXXXXXXXXXXXXXXX  0x00 0xXXXXXXXXXXXXXXXX  0x00 0xXXXXXXXXXXXXXXXX  0x0X 0xXXXXXXXXXXXXXXXX  0x01 0x0000000000000014  0x01 0x0000000000000014  0x01 0x0000000000000014  0x01 0x0000000000000014  0x01 0x0000000000000014  0x01 0x0000000000000014  0x01 0x0000000000000014  0x01 0x0000000000000014  0x01 0x0000000000000014  0x01 0x0000000000000014  0x01 0x0000000000000014  0x01 0x0000000000000014  0x01 0x0000000000000014  0x01 0x0000000000000014  0x01 0x0000000000000014  0x01 0x0000000000000014  0x01 0x0000000000000014  0x01 0x0000000000000014  0x01 0x0000000000000014  0x01 0x0000000000000014  0x01 0x0000000000000014  0x01 0x0000000000000014  0x01 0x0000000000000014  0x01 0x0000000000000014  0x01 0x0000000000000014  0x01 0x0000000000000014  0x01 0x0000000000000014  0x01 0x0000000000000014  0x01 0x0000000000000014  0x01 0x0000000000000014  0x01 0x0000000000000014  0x01 0x0000000000000014  0x01 0x0000000000000014  0x01 0x0000000000000014  0x01 0x0000000000000014  0x01 0x0000000000000014  
0x0015       0b0       0b1      0b0      0b0       0b0  0x00 0xXXXXXXXX00000000  0x00 0x000000XXXXXXXXXX  0x00 0xXXXXXXXXXXXXXXXX  0x00 0xXXXXXXXXXXXXXXXX  0x00 0xXXXXXXXXXXXXXXXX  0x00 0xXXXXXXXXXXXXXXXX  0x00 0xXXXXXXXXXXXXXXXX  0x00 0xXXXXXXXXXXXXXXXX  0x00 0xXXXXXXXXXXXXXXXX  0x00 0xXXXXXXXXXXXXXXXX  0x00 0xXXXXXXXXXXXXXXXX  0x00 0xXXXXXXXXXXXXXXXX  0x00 0xXXXXXXXXXXXXXXXX  0x00 0xXXXXXXXXXXXXXXXX  0x00 0xXXXXXXXXXXXXXXXX  0x00 0xXXXXXXXXXXXXXXXX  0x00 0xXXXXXXXXXXXXXXXX  0x0X 0xXXXXXXXXXXXXXXXX  0x01 0x0000000000000015  0x01 0x0000000000000015  0x01 0x0000000000000015  0x01 0x0000000000000015  0x01 0x0000000000000015  0x01 0x0000000000000015  0x01 0x0000000000000015  0x01 0x0000000000000015  0x01 0x0000000000000015  0x01 0x0000000000000015  0x01 0x0000000000000015  0x01 0x0000000000000015  0x01 0x0000000000000015  0x01 0x0000000000000015  0x01 0x0000000000000015  0x01 0x0000000000000015  0x01 0x0000000000000015  0x01 0x0000000000000015  0x01 0x0000000000000015  0x01 0x0000000000000015  0x01 0x0000000000000015  0x01 0x0000000000000015  0x01 0x0000000000000015  0x01 0x0000000000000015  0x01 0x0000000000000015  0x01 0x0000000000000015  0x01 0x0000000000000015  0x01 0x0000000000000015  0x01 0x0000000000000015  0x01 0x0000000000000015  0x01 0x0000000000000015  0x01 0x0000000000000015  0x01 0x0000000000000015  0x01 0x0000000000000015  0x01 0x0000000000000015  0x01 0x0000000000000015  
0x0016       0b0       0b1      0b0      0b0       0b0  0x00 0xXXXXXXXX00000000  0x00 0x000000XXXXXXXXXX  0x00 0xXXXXXXXXXXXXXXXX  0x00 0xXXXXXXXXXXXXXXXX  0x00 0xXXXXXXXXXXXXXXXX  0x00 0xXXXXXXXXXXXXXXXX  0x00 0xXXXXXXXXXXXXXXXX  0x00 0xXXXXXXXXXXXXXXXX  0x00 0xXXXXXXXXXXXXXXXX  0x00 0xXXXXXXXXXXXXXXXX  0x00 0xXXXXXXXXXXXXXXXX  0x00 0xXXXXXXXXXXXXXXXX  0x00 0xXXXXXXXXXXXXXXXX  0x00 0xXXXXXXXXXXXXXXXX  0x00 0xXXXXXXXXXXXXXXXX  0x00 0xXXXXXXXXXXXXXXXX  0x00 0xXXXXXXXXXXXXXXXX  0x0X 0xXXXXXXXXXXXXXXXX  0x01 0x0000000000000016  0x01 0x0000000000000016  0x01 0x0000000000000016  0x01 0x0000000000000016  0x01 0x0000000000000016  0x01 0x0000000000000016  0x01 0x0000000000000016  0x01 0x0000000000000016  0x01 0x0000000000000016  0x01 0x0000000000000016  0x01 0x0000000000000016  0x01 0x0000000000000016  0x01 0x0000000000000016  0x01 0x0000000000000016  0x01 0x0000000000000016  0x01 0x0000000000000016  0x01 0x0000000000000016  0x01 0x0000000000000016  0x01 0x0000000000000016  0x01 0x0000000000000016  0x01 0x0000000000000016  0x01 0x0000000000000016  0x01 0x0000000000000016  0x01 0x0000000000000016  0x01 0x0000000000000016  0x01 0x0000000000000016  0x01 0x0000000000000016  0x01 0x0000000000000016  0x01 0x0000000000000016  0x01 0x0000000000000016  0x01 0x0000000000000016  0x01 0x0000000000000016  0x01 0x0000000000000016  0x01 0x0000000000000016  0x01 0x0000000000000016  0x01 0x0000000000000016  
0x0017       0b0       0b1      0b0      0b0       0b0  0x00 0xXXXXXXXX00000000  0x00 0x000000XXXXXXXXXX  0x00 0xXXXXXXXXXXXXXXXX  0x00 0xXXXXXXXXXXXXXXXX  0x00 0xXXXXXXXXXXXXXXXX  0x00 0xXXXXXXXXXXXXXXXX  0x00 0xXXXXXXXXXXXXXXXX  0x00 0xXXXXXXXXXXXXXXXX  0x00 0xXXXXXXXXXXXXXXXX  0x00 0xXXXXXXXXXXXXXXXX  0x00 0xXXXXXXXXXXXXXXXX  0x00 0xXXXXXXXXXXXXXXXX  0x00 0xXXXXXXXXXXXXXXXX  0x00 0xXXXXXXXXXXXXXXXX  0x00 0xXXXXXXXXXXXXXXXX  0x00 0xXXXXXXXXXXXXXXXX  0x00 0xXXXXXXXXXXXXXXXX  0x0X 0xXXXXXXXXXXXXXXXX  0x01 0x0000000000000017  0x01 0x0000000000000017  0x01 0x0000000000000017  0x01 0x0000000000000017  0x01 0x0000000000000017  0x01 0x0000000000000017  0x01 0x0000000000000017  0x01 0x0000000000000017  0x01 0x0000000000000017  0x01 0x0000000000000017  0x01 0x0000000000000017  0x01 0x0000000000000017  0x01 0x0000000000000017  0x01 0x0000000000000017  0x01 0x0000000000000017  0x01 0x0000000000000017  0x01 0x0000000000000017  0x01 0x0000000000000017  0x01 0x0000000000000017  0x01 0x0000000000000017  0x01 0x0000000000000017  0x01 0x0000000000000017  0x01 0x0000000000000017  0x01 0x0000000000000017  0x01 0x0000000000000017  0x01 0x0000000000000017  0x01 0x0000000000000017  0x01 0x0000000000000017  0x01 0x0000000000000017  0x01 0x0000000000000017  0x01 0x0000000000000017  0x01 0x0000000000000017  0x01 0x0000000000000017  0x01 0x0000000000000017  0x01 0x0000000000000017  0x01 0x0000000000000017  
0x0018       0b0       0b1      0b0      0b0       0b0  0x00 0xXXXXXXXX00000000  0x00 0x000000XXXXXXXXXX  0x00 0xXXXXXXXXXXXXXXXX  0x00 0xXXXXXXXXXXXXXXXX  0x00 0xXXXXXXXXXXXXXXXX  0x00 0xXXXXXXXXXXXXXXXX  0x00 0xXXXXXXXXXXXXXXXX  0x00 0xXXXXXXXXXXXXXXXX  0x00 0xXXXXXXXXXXXXXXXX  0x00 0xXXXXXXXXXXXXXXXX  0x00 0xXXXXXXXXXXXXXXXX  0x00 0xXXXXXXXXXXXXXXXX  0x00 0xXXXXXXXXXXXXXXXX  0x00 0xXXXXXXXXXXXXXXXX  0x00 0xXXXXXXXXXXXXXXXX  0x00 0xXXXXXXXXXXXXXXXX  0x00 0xXXXXXXXXXXXXXXXX  0x0X 0xXXXXXXXXXXXXXXXX  0x01 0x0000000000000018  0x01 0x0000000000000018  0x01 0x0000000000000018  0x01 0x0000000000000018  0x01 0x0000000000000018  0x01 0x0000000000000018  0x01 0x0000000000000018  0x01 0x0000000000000018  0x01 0x0000000000000018  0x01 0x0000000000000018  0x01 0x0000000000000018  0x01 0x0000000000000018  0x01 0x0000000000000018  0x01 0x0000000000000018  0x01 0x0000000000000018  0x01 0x0000000000000018  0x01 0x0000000000000018  0x01 0x0000000000000018  0x01 0x0000000000000018  0x01 0x0000000000000018  0x01 0x0000000000000018  0x01 0x0000000000000018  0x01 0x0000000000000018  0x01 0x0000000000000018  0x01 0x0000000000000018  0x01 0x0000000000000018  0x01 0x0000000000000018  0x01 0x0000000000000018  0x01 0x0000000000000018  0x01 0x0000000000000018  0x01 0x0000000000000018  0x01 0x0000000000000018  0x01 0x0000000000000018  0x01 0x0000000000000018  0x01 0x0000000000000018  0x01 0x0000000000000018  
0x0019       0b0       0b1      0b0      0b0       0b0  0x00 0xXXXXXXXX00000000  0x00 0x000000XXXXXXXXXX  0x00 0xXXXXXXXXXXXXXXXX  0x00 0xXXXXXXXXXXXXXXXX  0x00 0xXXXXXXXXXXXXXXXX  0x00 0xXXXXXXXXXXXXXXXX  0x00 0xXXXXXXXXXXXXXXXX  0x00 0xXXXXXXXXXXXXXXXX  0x00 0xXXXXXXXXXXXXXXXX  0x00 0xXXXXXXXXXXXXXXXX  0x00 0xXXXXXXXXXXXXXXXX  0x00 0xXXXXXXXXXXXXXXXX  0x00 0xXXXXXXXXXXXXXXXX  0x00 0xXXXXXXXXXXXXXXXX  0x00 0xXXXXXXXXXXXXXXXX  0x00 0xXXXXXXXXXXXXXXXX  0x00 0xXXXXXXXXXXXXXXXX  0x0X 0xXXXXXXXXXXXXXXXX  0x01 0x0000000000000019  0x01 0x0000000000000019  0x01 0x0000000000000019  0x01 0x0000000000000019  0x01 0x0000000000000019  0x01 0x0000000000000019  0x01 0x0000000000000019  0x01 0x0000000000000019  0x01 0x0000000000000019  0x01 0x0000000000000019  0x01 0x0000000000000019  0x01 0x0000000000000019  0x01 0x0000000000000019  0x01 0x0000000000000019  0x01 0x0000000000000019  0x01 0x0000000000000019  0x01 0x0000000000000019  0x01 0x0000000000000019  0x01 0x0000000000000019  0x01 0x0000000000000019  0x01 0x0000000000000019  0x01 0x0000000000000019  0x01 0x0000000000000019  0x01 0x0000000000000019  0x01 0x0000000000000019  0x01 0x0000000000000019  0x01 0x0000000000000019  0x01 0x0000000000000019  0x01 0x0000000000000019  0x01 0x0000000000000019  0x01 0x0000000000000019  0x01 0x0000000000000019  0x01 0x0000000000000019  0x01 0x0000000000000019  0x01 0x0000000000000019  0x01 0x0000000000000019  
0x001A       0b0       0b1      0b0      0b0       0b0  0x00 0xXXXXXXXX00000000  0x00 0x000000XXXXXXXXXX  0x00 0xXXXXXXXXXXXXXXXX  0x00 0xXXXXXXXXXXXXXXXX  0x00 0xXXXXXXXXXXXXXXXX  0x00 0xXXXXXXXXXXXXXXXX  0x00 0xXXXXXXXXXXXXXXXX  0x00 0xXXXXXXXXXXXXXXXX  0x00 0xXXXXXXXXXXXXXXXX  0x00 0xXXXXXXXXXXXXXXXX  0x00 0xXXXXXXXXXXXXXXXX  0x00 0xXXXXXXXXXXXXXXXX  0x00 0xXXXXXXXXXXXXXXXX  0x00 0xXXXXXXXXXXXXXXXX  0x00 0xXXXXXXXXXXXXXXXX  0x00 0xXXXXXXXXXXXXXXXX  0x00 0xXXXXXXXXXXXXXXXX  0x0X 0xXXXXXXXXXXXXXXXX  0x01 0x000000000000001A  0x01 0x000000000000001A  0x01 0x000000000000001A  0x01 0x000000000000001A  0x01 0x000000000000001A  0x01 0x000000000000001A  0x01 0x000000000000001A  0x01 0x000000000000001A  0x01 0x000000000000001A  0x01 0x000000000000001A  0x01 0x000000000000001A  0x01 0x000000000000001A  0x01 0x000000000000001A  0x01 0x000000000000001A  0x01 0x000000000000001A  0x01 0x000000000000001A  0x01 0x000000000000001A  0x01 0x000000000000001A  0x01 0x000000000000001A  0x01 0x000000000000001A  0x01 0x000000000000001A  0x01 0x000000000000001A  0x01 0x000000000000001A  0x01 0x000000000000001A  0x01 0x000000000000001A  0x01 0x000000000000001A  0x01 0x000000000000001A  0x01 0x000000000000001A  0x01 0x000000000000001A  0x01 0x000000000000001A  0x01 0x000000000000001A  0x01 0x000000000000001A  0x01 0x000000000000001A  0x01 0x000000000000001A  0x01 0x000000000000001A  0x01 0x000000000000001A  
0x001B       0b0       0b1      0b0      0b0       0b0  0x00 0xXXXXXXXX00000000  0x00 0x000000XXXXXXXXXX  0x00 0xXXXXXXXXXXXXXXXX  0x00 0xXXXXXXXXXXXXXXXX  0x00 0xXXXXXXXXXXXXXXXX  0x00 0xXXXXXXXXXXXXXXXX  0x00 0xXXXXXXXXXXXXXXXX  0x00 0xXXXXXXXXXXXXXXXX  0x00 0xXXXXXXXXXXXXXXXX  0x00 0xXXXXXXXXXXXXXXXX  0x00 0xXXXXXXXXXXXXXXXX  0x00 0xXXXXXXXXXXXXXXXX  0x00 0xXXXXXXXXXXXXXXXX  0x00 0xXXXXXXXXXXXXXXXX  0x00 0xXXXXXXXXXXXXXXXX  0x00 0xXXXXXXXXXXXXXXXX  0x00 0xXXXXXXXXXXXXXXXX  0x0X 0xXXXXXXXXXXXXXXXX  0x01 0x000000000000001B  0x01 0x000000000000001B  0x01 0x000000000000001B  0x01 0x000000000000001B  0x01 0x000000000000001B  0x01 0x000000000000001B  0x01 0x000000000000001B  0x01 0x000000000000001B  0x01 0x000000000000001B  0x01 0x000000000000001B  0x01 0x000000000000001B  0x01 0x000000000000001B  0x01 0x000000000000001B  0x01 0x000000000000001B  0x01 0x000000000000001B  0x01 0x000000000000001B  0x01 0x000000000000001B  0x01 0x000000000000001B  0x01 0x000000000000001B  0x01 0x000000000000001B  0x01 0x000000000000001B  0x01 0x000000000000001B  0x01 0x000000000000001B  0x01 0x000000000000001B  0x01 0x000000000000001B  0x01 0x000000000000001B  0x01 0x000000000000001B  0x01 0x000000000000001B  0x01 0x000000000000001B  0x01 0x000000000000001B  0x01 0x000000000000001B  0x01 0x000000000000001B  0x01 0x000000000000001B  0x01 0x000000000000001B  0x01 0x000000000000001B  0x01 0x000000000000001B  
0x001C       0b0       0b1      0b0      0b0       0b0  0x00 0xXXXXXXXX00000000  0x00 0x000000XXXXXXXXXX  0x00 0xXXXXXXXXXXXXXXXX  0x00 0xXXXXXXXXXXXXXXXX  0x00 0xXXXXXXXXXXXXXXXX  0x00 0xXXXXXXXXXXXXXXXX  0x00 0xXXXXXXXXXXXXXXXX  0x00 0xXXXXXXXXXXXXXXXX  0x00 0xXXXXXXXXXXXXXXXX  0x00 0xXXXXXXXXXXXXXXXX  0x00 0xXXXXXXXXXXXXXXXX  0x00 0xXXXXXXXXXXXXXXXX  0x00 0xXXXXXXXXXXXXXXXX  0x00 0xXXXXXXXXXXXXXXXX  0x00 0xXXXXXXXXXXXXXXXX  0x00 0xXXXXXXXXXXXXXXXX  0x00 0xXXXXXXXXXXXXXXXX  0x0X 0xXXXXXXXXXXXXXXXX  0x01 0x000000000000001C  0x01 0x000000000000001C  0x01 0x000000000000001C  0x01 0x000000000000001C  0x01 0x000000000000001C  0x01 0x000000000000001C  0x01 0x000000000000001C  0x01 0x000000000000001C  0x01 0x000000000000001C  0x01 0x000000000000001C  0x01 0x000000000000001C  0x01 0x000000000000001C  0x01 0x000000000000001C  0x01 0x000000000000001C  0x01 0x000000000000001C  0x01 0x000000000000001C  0x01 0x000000000000001C  0x01 0x000000000000001C  0x01 0x000000000000001C  0x01 0x000000000000001C  0x01 0x000000000000001C  0x01 0x000000000000001C  0x01 0x000000000000001C  0x01 0x000000000000001C  0x01 0x000000000000001C  0x01 0x000000000000001C  0x01 0x000000000000001C  0x01 0x000000000000001C  0x01 0x000000000000001C  0x01 0x000000000000001C  0x01 0x000000000000001C  0x01 0x000000000000001C  0x01 0x000000000000001C  0x01 0x000000000000001C  0x01 0x000000000000001C  0x01 0x000000000000001C  
0x001D       0b0       0b1      0b0      0b0       0b0  0x00 0xXXXXXXXX00000000  0x00 0x000000XXXXXXXXXX  0x00 0xXXXXXXXXXXXXXXXX  0x00 0xXXXXXXXXXXXXXXXX  0x00 0xXXXXXXXXXXXXXXXX  0x00 0xXXXXXXXXXXXXXXXX  0x00 0xXXXXXXXXXXXXXXXX  0x00 0xXXXXXXXXXXXXXXXX  0x00 0xXXXXXXXXXXXXXXXX  0x00 0xXXXXXXXXXXXXXXXX  0x00 0xXXXXXXXXXXXXXXXX  0x00 0xXXXXXXXXXXXXXXXX  0x00 0xXXXXXXXXXXXXXXXX  0x00 0xXXXXXXXXXXXXXXXX  0x00 0xXXXXXXXXXXXXXXXX  0x00 0xXXXXXXXXXXXXXXXX  0x00 0xXXXXXXXXXXXXXXXX  0x0X 0xXXXXXXXXXXXXXXXX  0x01 0x000000000000001D  0x01 0x000000000000001D  0x01 0x000000000000001D  0x01 0x000000000000001D  0x01 0x000000000000001D  0x01 0x000000000000001D  0x01 0x000000000000001D  0x01 0x000000000000001D  0x01 0x000000000000001D  0x01 0x000000000000001D  0x01 0x000000000000001D  0x01 0x000000000000001D  0x01 0x000000000000001D  0x01 0x000000000000001D  0x01 0x000000000000001D  0x01 0x000000000000001D  0x01 0x000000000000001D  0x01 0x000000000000001D  0x01 0x000000000000001D  0x01 0x000000000000001D  0x01 0x000000000000001D  0x01 0x000000000000001D  0x01 0x000000000000001D  0x01 0x000000000000001D  0x01 0x000000000000001D  0x01 0x000000000000001D  0x01 0x000000000000001D  0x01 0x000000000000001D  0x01 0x000000000000001D  0x01 0x000000000000001D  0x01 0x000000000000001D  0x01 0x000000000000001D  0x01 0x000000000000001D  0x01 0x000000000000001D  0x01 0x000000000000001D  0x01 0x000000000000001D  
0x001E       0b0       0b1      0b0      0b0       0b0  0x00 0xXXXXXXXX00000000  0x00 0x000000XXXXXXXXXX  0x00 0xXXXXXXXXXXXXXXXX  0x00 0xXXXXXXXXXXXXXXXX  0x00 0xXXXXXXXXXXXXXXXX  0x00 0xXXXXXXXXXXXXXXXX  0x00 0xXXXXXXXXXXXXXXXX  0x00 0xXXXXXXXXXXXXXXXX  0x00 0xXXXXXXXXXXXXXXXX  0x00 0xXXXXXXXXXXXXXXXX  0x00 0xXXXXXXXXXXXXXXXX  0x00 0xXXXXXXXXXXXXXXXX  0x00 0xXXXXXXXXXXXXXXXX  0x00 0xXXXXXXXXXXXXXXXX  0x00 0xXXXXXXXXXXXXXXXX  0x00 0xXXXXXXXXXXXXXXXX  0x00 0xXXXXXXXXXXXXXXXX  0x0X 0xXXXXXXXXXXXXXXXX  0x01 0x000000000000001E  0x01 0x000000000000001E  0x01 0x000000000000001E  0x01 0x000000000000001E  0x01 0x000000000000001E  0x01 0x000000000000001E  0x01 0x000000000000001E  0x01 0x000000000000001E  0x01 0x000000000000001E  0x01 0x000000000000001E  0x01 0x000000000000001E  0x01 0x000000000000001E  0x01 0x000000000000001E  0x01 0x000000000000001E  0x01 0x000000000000001E  0x01 0x000000000000001E  0x01 0x000000000000001E  0x01 0x000000000000001E  0x01 0x000000000000001E  0x01 0x000000000000001E  0x01 0x000000000000001E  0x01 0x000000000000001E  0x01 0x000000000000001E  0x01 0x000000000000001E  0x01 0x000000000000001E  0x01 0x000000000000001E  0x01 0x000000000000001E  0x01 0x000000000000001E  0x01 0x000000000000001E  0x01 0x000000000000001E  0x01 0x000000000000001E  0x01 0x000000000000001E  0x01 0x000000000000001E  0x01 0x000000000000001E  0x01 0x000000000000001E  0x01 0x000000000000001E  
0x001F       0b0       0b1      0b0      0b0       0b0  0x00 0xXXXXXXXX00000000  0x00 0x000000XXXXXXXXXX  0x00 0xXXXXXXXXXXXXXXXX  0x00 0xXXXXXXXXXXXXXXXX  0x00 0xXXXXXXXXXXXXXXXX  0x00 0xXXXXXXXXXXXXXXXX  0x00 0xXXXXXXXXXXXXXXXX  0x00 0xXXXXXXXXXXXXXXXX  0x00 0xXXXXXXXXXXXXXXXX  0x00 0xXXXXXXXXXXXXXXXX  0x00 0xXXXXXXXXXXXXXXXX  0x00 0xXXXXXXXXXXXXXXXX  0x00 0xXXXXXXXXXXXXXXXX  0x00 0xXXXXXXXXXXXXXXXX  0x00 0xXXXXXXXXXXXXXXXX  0x00 0xXXXXXXXXXXXXXXXX  0x00 0xXXXXXXXXXXXXXXXX  0x0X 0xXXXXXXXXXXXXXXXX  0x01 0x000000000000001F  0x01 0x000000000000001F  0x01 0x000000000000001F  0x01 0x000000000000001F  0x01 0x000000000000001F  0x01 0x000000000000001F  0x01 0x000000000000001F  0x01 0x000000000000001F  0x01 0x000000000000001F  0x01 0x000000000000001F  0x01 0x000000000000001F  0x01 0x000000000000001F  0x01 0x000000000000001F  0x01 0x000000000000001F  0x01 0x000000000000001F  0x01 0x000000000000001F  0x01 0x000000000000001F  0x01 0x000000000000001F  0x01 0x000000000000001F  0x01 0x000000000000001F  0x01 0x000000000000001F  0x01 0x000000000000001F  0x01 0x000000000000001F  0x01 0x000000000000001F  0x01 0x000000000000001F  0x01 0x000000000000001F  0x01 0x000000000000001F  0x01 0x000000000000001F  0x01 0x000000000000001F  0x01 0x000000000000001F  0x01 0x000000000000001F  0x01 0x000000000000001F  0x01 0x000000000000001F  0x01 0x000000000000001F  0x01 0x000000000000001F  0x01 0x000000000000001F  
0x0020       0b0       0b1      0b0      0b0       0b0  0x00 0xXXXXXXXX00000000  0x00 0x000000XXXXXXXXXX  0x00 0xXXXXXXXXXXXXXXXX  0x01 0xXXXXXXXX00003060  0x01 0x007F3D9EF469C012  0x01 0xXXXXXXXX000030A0  0x01 0x00001F1E85074013  0x01 0xXXXXXXXX00000000  0x01 0x0000000000000000  0x01 0xXXXXXXXX00000000  0x01 0x0000000000000000  0x01 0xXXXXXXXX00003060  0x01 0x000026E8E8288012  0x01 0xXXXXXXXX00003040  0x01 0x00001FE250A2401B  0x01 0xXXXXXXXX00000000  0x01 0x0000000000000000  0x0X 0xXXXXXXXXXXXXXXXX  0x01 0x0000000000000020  0x01 0x0000000000000020  0x01 0x0000000000000020  0x01 0x0000000000000020  0x01 0x0000000000000020  0x01 0x0000000000000020  0x01 0x0000000000000020  0x01 0x0000000000000020  0x01 0x0000000000000020  0x01 0x0000000000000020  0x01 0x0000000000000020  0x01 0x0000000000000020  0x01 0x0000000000000020  0x01 0x0000000000000020  0x01 0x0000000000000020  0x01 0x0000000000000020  0x01 0x0000000000000020  0x01 0x0000000000000020  0x01 0x0000000000000020  0x01 0x0000000000000020  0x01 0x0000000000000020  0x01 0x0000000000000020  0x01 0x0000000000000020  0x01 0x0000000000000020  0x01 0x0000000000000020  0x01 0x0000000000000020  0x01 0x0000000000000020  0x01 0x0000000000000020  0x01 0x0000000000000020  0x01 0x0000000000000020  0x01 0x0000000000000020  0x01 0x0000000000000020  0x01 0x0000000000000020  0x01 0x0000000000000020  0x01 0x0000000000000020  0x01 0x0000000000000020  
0x0021       0b0       0b1      0b0      0b0       0b0  0x00 0xXXXXXXXX00000000  0x00 0x000000XXXXXXXXXX  0x00 0xXXXXXXXXXXXXXXXX  0x01 0xXXXXXXXX00003060  0x01 0x007F3D9EF469C012  0x01 0xXXXXXXXX000030A0  0x01 0x00001F1E85074013  0x01 0xXXXXXXXX00000000  0x01 0x0000000000000000  0x01 0xXXXXXXXX00000000  0x01 0x0000000000000000  0x01 0xXXXXXXXX00003060  0x01 0x000026E8E8288012  0x01 0xXXXXXXXX00003040  0x01 0x00001FE250A2401B  0x01 0xXXXXXXXX00000000  0x01 0x0000000000000000  0x0X 0xXXXXXXXXXXXXXXXX  0x01 0x0000000000000021  0x01 0x0000000000000021  0x01 0x0000000000000021  0x01 0x0000000000000021  0x01 0x0000000000000021  0x01 0x0000000000000021  0x01 0x0000000000000021  0x01 0x0000000000000021  0x01 0x0000000000000021  0x01 0x0000000000000021  0x01 0x0000000000000021  0x01 0x0000000000000021  0x01 0x0000000000000021  0x01 0x0000000000000021  0x01 0x0000000000000021  0x01 0x0000000000000021  0x01 0x0000000000000021  0x01 0x0000000000000021  0x01 0x0000000000000021  0x01 0x0000000000000021  0x01 0x0000000000000021  0x01 0x0000000000000021  0x01 0x0000000000000021  0x01 0x0000000000000021  0x01 0x0000000000000021  0x01 0x0000000000000021  0x01 0x0000000000000021  0x01 0x0000000000000021  0x01 0x0000000000000021  0x01 0x0000000000000021  0x01 0x0000000000000021  0x01 0x0000000000000021  0x01 0x0000000000000021  0x01 0x0000000000000021  0x01 0x0000000000000021  0x01 0x0000000000000021  
0x0022       0b0       0b1      0b0      0b0       0b0  0x00 0xXXXXXXXX00000000  0x00 0x000000XXXXXXXXXX  0x00 0xXXXXXXXXXXXXXXXX  0x01 0xXXXXXXXX00003060  0x01 0x007F3D9EF469C012  0x01 0xXXXXXXXX000030A0  0x01 0x00001F1E85074013  0x01 0xXXXXXXXX00000000  0x01 0x0000000000000000  0x01 0xXXXXXXXX00000000  0x01 0x0000000000000000  0x01 0xXXXXXXXX00003060  0x01 0x000026E8E8288012  0x01 0xXXXXXXXX00003040  0x01 0x00001FE250A2401B  0x01 0xXXXXXXXX00000000  0x01 0x0000000000000000  0x0X 0xXXXXXXXXXXXXXXXX  0x01 0x0000000000000022  0x01 0x0000000000000022  0x01 0x0000000000000022  0x01 0x0000000000000022  0x01 0x0000000000000022  0x01 0x0000000000000022  0x01 0x0000000000000022  0x01 0x0000000000000022  0x01 0x0000000000000022  0x01 0x0000000000000022  0x01 0x0000000000000022  0x01 0x0000000000000022  0x01 0x0000000000000022  0x01 0x0000000000000022  0x01 0x0000000000000022  0x01 0x0000000000000022  0x01 0x0000000000000022  0x01 0x0000000000000022  0x01 0x0000000000000022  0x01 0x0000000000000022  0x01 0x0000000000000022  0x01 0x0000000000000022  0x01 0x0000000000000022  0x01 0x0000000000000022  0x01 0x0000000000000022  0x01 0x0000000000000022  0x01 0x0000000000000022  0x01 0x0000000000000022  0x01 0x0000000000000022  0x01 0x0000000000000022  0x01 0x0000000000000022  0x01 0x0000000000000022  0x01 0x0000000000000022  0x01 0x0000000000000022  0x01 0x0000000000000022  0x01 0x0000000000000022  
0x0023       0b0       0b1      0b0      0b0       0b0  0x00 0xXXXXXXXX00000000  0x00 0x000000XXXXXXXXXX  0x00 0xXXXXXXXXXXXXXXXX  0x01 0xXXXXXXXX000028E0  0x01 0x00004632AC898008  0x01 0xXXXXXXXX00000000  0x01 0x0000000000000000  0x01 0xXXXXXXXX00000000  0x01 0x0000000000000000  0x01 0xXXXXXXXX00000000  0x01 0x0000000000000000  0x01 0xXXXXXXXX00000000  0x01 0x0000000000000000  0x01 0xXXXXXXXX00003070  0x01 0x007E154D68F8400C  0x01 0xXXXXXXXX00000000  0x01 0x0000000000000000  0x0X 0xXXXXXXXXXXXXXXXX  0x01 0x0000000000000023  0x01 0x0000000000000023  0x01 0x0000000000000023  0x01 0x0000000000000023  0x01 0x0000000000000023  0x01 0x0000000000000023  0x01 0x0000000000000023  0x01 0x0000000000000023  0x01 0x0000000000000023  0x01 0x0000000000000023  0x01 0x0000000000000023  0x01 0x0000000000000023  0x01 0x0000000000000023  0x01 0x0000000000000023  0x01 0x0000000000000023  0x01 0x0000000000000023  0x01 0x0000000000000023  0x01 0x0000000000000023  0x01 0x0000000000000023  0x01 0x0000000000000023  0x01 0x0000000000000023  0x01 0x0000000000000023  0x01 0x0000000000000023  0x01 0x0000000000000023  0x01 0x0000000000000023  0x01 0x0000000000000023  0x01 0x0000000000000023  0x01 0x0000000000000023  0x01 0x0000000000000023  0x01 0x0000000000000023  0x01 0x0000000000000023  0x01 0x0000000000000023  0x01 0x0000000000000023  0x01 0x0000000000000023  0x01 0x0000000000000023  0x01 0x0000000000000023  
0x0024       0b0       0b1      0b0      0b0       0b0  0x00 0xXXXXXXXX00000000  0x00 0x000000XXXXXXXXXX  0x00 0xXXXXXXXXXXXXXXXX  0x01 0xXXXXXXXX00000000  0x01 0x0000000000000000  0x01 0xXXXXXXXX00000000  0x01 0x0000000000000000  0x01 0xXXXXXXXX00000000  0x01 0x0000000000000000  0x01 0xXXXXXXXX00002030  0x01 0x007F37DDBF24C009  0x01 0xXXXXXXXX00000000  0x01 0x0000000000000000  0x01 0xXXXXXXXX00003060  0x01 0x00001FCFE89D402A  0x01 0xXXXXXXXX00000000  0x01 0x0000000000000000  0x0X 0xXXXXXXXXXXXXXXXX  0x01 0x0000000000000024  0x01 0x0000000000000024  0x01 0x0000000000000024  0x01 0x0000000000000024  0x01 0x0000000000000024  0x01 0x0000000000000024  0x01 0x0000000000000024  0x01 0x0000000000000024  0x01 0x0000000000000024  0x01 0x0000000000000024  0x01 0x0000000000000024  0x01 0x0000000000000024  0x01 0x0000000000000024  0x01 0x0000000000000024  0x01 0x0000000000000024  0x01 0x0000000000000024  0x01 0x0000000000000024  0x01 0x0000000000000024  0x01 0x0000000000000024  0x01 0x0000000000000024  0x01 0x0000000000000024  0x01 0x0000000000000024  0x01 0x0000000000000024  0x01 0x0000000000000024  0x01 0x0000000000000024  0x01 0x0000000000000024  0x01 0x0000000000000024  0x01 0x0000000000000024  0x01 0x0000000000000024  0x01 0x0000000000000024  0x01 0x0000000000000024  0x01 0x0000000000000024  0x01 0x0000000000000024  0x01 0x0000000000000024  0x01 0x0000000000000024  0x01 0x0000000000000024  
0x0025       0b0       0b1      0b0      0b0       0b0  0x00 0xXXXXXXXX00000000  0x00 0x000000XXXXXXXXXX  0x00 0xXXXXXXXXXXXXXXXX  0x01 0xXXXXXXXX000030B0  0x01 0x007FCDB6BCAE400B  0x01 0xXXXXXXXX00000000  0x01 0x0000000000000000  0x01 0xXXXXXXXX00000000  0x01 0x0000000000000000  0x01 0xXXXXXXXX000028A0  0x01 0x007FDE9146E30009  0x01 0xXXXXXXXX00002890  0x01 0x007EF6058FE6C00F  0x01 0xXXXXXXXX00000000  0x01 0x0000000000000000  0x01 0xXXXXXXXX00002080  0x01 0x00011FA64A030009  0x0X 0xXXXXXXXXXXXXXXXX  0x01 0x0000000000000025  0x01 0x0000000000000025  0x01 0x0000000000000025  0x01 0x0000000000000025  0x01 0x0000000000000025  0x01 0x0000000000000025  0x01 0x0000000000000025  0x01 0x0000000000000025  0x01 0x0000000000000025  0x01 0x0000000000000025  0x01 0x0000000000000025  0x01 0x0000000000000025  0x01 0x0000000000000025  0x01 0x0000000000000025  0x01 0x0000000000000025  0x01 0x0000000000000025  0x01 0x0000000000000025  0x01 0x0000000000000025  0x01 0x0000000000000025  0x01 0x0000000000000025  0x01 0x0000000000000025  0x01 0x0000000000000025  0x01 0x0000000000000025  0x01 0x0000000000000025  0x01 0x0000000000000025  0x01 0x0000000000000025  0x01 0x0000000000000025  0x01 0x0000000000000025  0x01 0x0000000000000025  0x01 0x0000000000000025  0x01 0x0000000000000025  0x01 0x0000000000000025  0x01 0x0000000000000025  0x01 0x0000000000000025  0x01 0x0000000000000025  0x01 0x0000000000000025  
0x0026       0b0       0b1      0b0      0b0       0b0  0x00 0xXXXXXXXX00000000  0x00 0x000000XXXXXXXXXX  0x00 0xXXXXXXXXXXXXXXXX  0x01 0xXXXXXXXX00002040  0x01 0x00002ED604E2800C  0x01 0xXXXXXXXX00000000  0x01 0x0000000000000000  0x01 0xXXXXXXXX00000000  0x01 0x0000000000000000  0x01 0xXXXXXXXX00000000  0x01 0x0000000000000000  0x01 0xXXXXXXXX00000000  0x01 0x0000000000000000  0x01 0xXXXXXXXX00002820  0x01 0x00015EC7C0A7C009  0x01 0xXXXXXXXX000020B0  0x01 0x007FAD4A4180C008  0x0X 0xXXXXXXXXXXXXXXXX  0x01 0x0000000000000026  0x01 0x0000000000000026  0x01 0x0000000000000026  0x01 0x0000000000000026  0x01 0x0000000000000026  0x01 0x0000000000000026  0x01 0x0000000000000026  0x01 0x0000000000000026  0x01 0x0000000000000026  0x01 0x0000000000000026  0x01 0x0000000000000026  0x01 0x0000000000000026  0x01 0x0000000000000026  0x01 0x0000000000000026  0x01 0x0000000000000026  0x01 0x0000000000000026  0x01 0x0000000000000026  0x01 0x0000000000000026  0x01 0x0000000000000026  0x01 0x0000000000000026  0x01 0x0000000000000026  0x01 0x0000000000000026  0x01 0x0000000000000026  0x01 0x0000000000000026  0x01 0x0000000000000026  0x01 0x0000000000000026  0x01 0x0000000000000026  0x01 0x0000000000000026  0x01 0x0000000000000026  0x01 0x0000000000000026  0x01 0x0000000000000026  0x01 0x0000000000000026  0x01 0x0000000000000026  0x01 0x0000000000000026  0x01 0x0000000000000026  0x01 0x0000000000000026  
0x0027       0b0       0b1      0b0      0b0       0b0  0x00 0xXXXXXXXX00000000  0x00 0x000000XXXXXXXXXX  0x00 0xXXXXXXXXXXXXXXXX  0x01 0xXXXXXXXX00000000  0x01 0x0000000000000000  0x01 0xXXXXXXXX00000000  0x01 0x0000000000000000  0x01 0xXXXXXXXX00000000  0x01 0x0000000000000000  0x01 0xXXXXXXXX00000000  0x01 0x0000000000000000  0x01 0xXXXXXXXX00000000  0x01 0x0000000000000000  0x01 0xXXXXXXXX00000000  0x01 0x0000000000000000  0x01 0xXXXXXXXX00000000  0x01 0x0000000000000000  0x0X 0xXXXXXXXXXXXXXXXX  0x01 0x0000000000000027  0x01 0x0000000000000027  0x01 0x0000000000000027  0x01 0x0000000000000027  0x01 0x0000000000000027  0x01 0x0000000000000027  0x01 0x0000000000000027  0x01 0x0000000000000027  0x01 0x0000000000000027  0x01 0x0000000000000027  0x01 0x0000000000000027  0x01 0x0000000000000027  0x01 0x0000000000000027  0x01 0x0000000000000027  0x01 0x0000000000000027  0x01 0x0000000000000027  0x01 0x0000000000000027  0x01 0x0000000000000027  0x01 0x0000000000000027  0x01 0x0000000000000027  0x01 0x0000000000000027  0x01 0x0000000000000027  0x01 0x0000000000000027  0x01 0x0000000000000027  0x01 0x0000000000000027  0x01 0x0000000000000027  0x01 0x0000000000000027  0x01 0x0000000000000027  0x01 0x0000000000000027  0x01 0x0000000000000027  0x01 0x0000000000000027  0x01 0x0000000000000027  0x01 0x0000000000000027  0x01 0x0000000000000027  0x01 0x0000000000000027  0x01 0x0000000000000027  
0x0028       0b0       0b1      0b0      0b0       0b0  0x00 0xXXXXXXXX00000000  0x00 0x000000XXXXXXXXXX  0x00 0xXXXXXXXXXXXXXXXX  0x01 0xXXXXXXXX00002870  0x01 0x007FDD43846D8009  0x01 0xXXXXXXXX00000000  0x01 0x0000000000000000  0x01 0xXXXXXXXX00000000  0x01 0x0000000000000000  0x01 0xXXXXXXXX00000000  0x01 0x0000000000000000  0x01 0xXXXXXXXX00000000  0x01 0x0000000000000000  0x01 0xXXXXXXXX00002090  0x01 0x007E0E9AB1144009  0x01 0xXXXXXXXX00000000  0x01 0x0000000000000000  0x0X 0xXXXXXXXXXXXXXXXX  0x01 0x0000000000000028  0x01 0x0000000000000028  0x01 0x0000000000000028  0x01 0x0000000000000028  0x01 0x0000000000000028  0x01 0x0000000000000028  0x01 0x0000000000000028  0x01 0x0000000000000028  0x01 0x0000000000000028  0x01 0x0000000000000028  0x01 0x0000000000000028  0x01 0x0000000000000028  0x01 0x0000000000000028  0x01 0x0000000000000028  0x01 0x0000000000000028  0x01 0x0000000000000028  0x01 0x0000000000000028  0x01 0x0000000000000028  0x01 0x0000000000000028  0x01 0x0000000000000028  0x01 0x0000000000000028  0x01 0x0000000000000028  0x01 0x0000000000000028  0x01 0x0000000000000028  0x01 0x0000000000000028  0x01 0x0000000000000028  0x01 0x0000000000000028  0x01 0x0000000000000028  0x01 0x0000000000000028  0x01 0x0000000000000028  0x01 0x0000000000000028  0x01 0x0000000000000028  0x01 0x0000000000000028  0x01 0x0000000000000028  0x01 0x0000000000000028  0x01 0x0000000000000028  
0x0029       0b0       0b1      0b0      0b0       0b0  0x00 0xXXXXXXXX00000000  0x00 0x000000XXXXXXXXXX  0x00 0xXXXXXXXXXXXXXXXX  0x01 0xXXXXXXXX00000000  0x01 0x0000000000000000  0x01 0xXXXXXXXX00000000  0x01 0x0000000000000000  0x01 0xXXXXXXXX00000000  0x01 0x0000000000000000  0x01 0xXXXXXXXX00000000  0x01 0x0000000000000000  0x01 0xXXXXXXXX00002060  0x01 0x00002EEBD832800E  0x01 0xXXXXXXXX00000000  0x01 0x0000000000000000  0x01 0xXXXXXXXX00000000  0x01 0x0000000000000000  0x0X 0xXXXXXXXXXXXXXXXX  0x01 0x0000000000000029  0x01 0x0000000000000029  0x01 0x0000000000000029  0x01 0x0000000000000029  0x01 0x0000000000000029  0x01 0x0000000000000029  0x01 0x0000000000000029  0x01 0x0000000000000029  0x01 0x0000000000000029  0x01 0x0000000000000029  0x01 0x0000000000000029  0x01 0x0000000000000029  0x01 0x0000000000000029  0x01 0x0000000000000029  0x01 0x0000000000000029  0x01 0x0000000000000029  0x01 0x0000000000000029  0x01 0x0000000000000029  0x01 0x0000000000000029  0x01 0x0000000000000029  0x01 0x0000000000000029  0x01 0x0000000000000029  0x01 0x0000000000000029  0x01 0x0000000000000029  0x01 0x0000000000000029  0x01 0x0000000000000029  0x01 0x0000000000000029  0x01 0x0000000000000029  0x01 0x0000000000000029  0x01 0x0000000000000029  0x01 0x0000000000000029  0x01 0x0000000000000029  0x01 0x0000000000000029  0x01 0x0000000000000029  0x01 0x0000000000000029  0x01 0x0000000000000029  
0x002A       0b0       0b1      0b0      0b0       0b0  0x00 0xXXXXXXXX00000000  0x00 0x000000XXXXXXXXXX  0x00 0xXXXXXXXXXXXXXXXX  0x01 0xXXXXXXXX00000000  0x01 0x0000000000000000  0x01 0xXXXXXXXX00000000  0x01 0x0000000000000000  0x01 0xXXXXXXXX00000000  0x01 0x0000000000000000  0x01 0xXXXXXXXX00000000  0x01 0x0000000000000000  0x01 0xXXXXXXXX00002840  0x01 0x007FF6E41FFE400F  0x01 0xXXXXXXXX00003060  0x01 0x000007E608A70021  0x01 0xXXXXXXXX00000000  0x01 0x0000000000000000  0x0X 0xXXXXXXXXXXXXXXXX  0x01 0x000000000000002A  0x01 0x000000000000002A  0x01 0x000000000000002A  0x01 0x000000000000002A  0x01 0x000000000000002A  0x01 0x000000000000002A  0x01 0x000000000000002A  0x01 0x000000000000002A  0x01 0x000000000000002A  0x01 0x000000000000002A  0x01 0x000000000000002A  0x01 0x000000000000002A  0x01 0x000000000000002A  0x01 0x000000000000002A  0x01 0x000000000000002A  0x01 0x000000000000002A  0x01 0x000000000000002A  0x01 0x000000000000002A  0x01 0x000000000000002A  0x01 0x000000000000002A  0x01 0x000000000000002A  0x01 0x000000000000002A  0x01 0x000000000000002A  0x01 0x000000000000002A  0x01 0x000000000000002A  0x01 0x000000000000002A  0x01 0x000000000000002A  0x01 0x000000000000002A  0x01 0x000000000000002A  0x01 0x000000000000002A  0x01 0x000000000000002A  0x01 0x000000000000002A  0x01 0x000000000000002A  0x01 0x000000000000002A  0x01 0x000000000000002A  0x01 0x000000000000002A  
0x002B       0b0       0b1      0b0      0b0       0b0  0x00 0xXXXXXXXX00000000  0x00 0x000000XXXXXXXXXX  0x00 0xXXXXXXXXXXXXXXXX  0x01 0xXXXXXXXX00000000  0x01 0x0000000000000000  0x01 0xXXXXXXXX00000000  0x01 0x0000000000000000  0x01 0xXXXXXXXX00000000  0x01 0x0000000000000000  0x01 0xXXXXXXXX00000000  0x01 0x0000000000000000  0x01 0xXXXXXXXX00003020  0x01 0x00016F84F7ED4009  0x01 0xXXXXXXXX00000000  0x01 0x0000000000000000  0x01 0xXXXXXXXX00000000  0x01 0x0000000000000000  0x0X 0xXXXXXXXXXXXXXXXX  0x01 0x000000000000002B  0x01 0x000000000000002B  0x01 0x000000000000002B  0x01 0x000000000000002B  0x01 0x000000000000002B  0x01 0x000000000000002B  0x01 0x000000000000002B  0x01 0x000000000000002B  0x01 0x000000000000002B  0x01 0x000000000000002B  0x01 0x000000000000002B  0x01 0x000000000000002B  0x01 0x000000000000002B  0x01 0x000000000000002B  0x01 0x000000000000002B  0x01 0x000000000000002B  0x01 0x000000000000002B  0x01 0x000000000000002B  0x01 0x000000000000002B  0x01 0x000000000000002B  0x01 0x000000000000002B  0x01 0x000000000000002B  0x01 0x000000000000002B  0x01 0x000000000000002B  0x01 0x000000000000002B  0x01 0x000000000000002B  0x01 0x000000000000002B  0x01 0x000000000000002B  0x01 0x000000000000002B  0x01 0x000000000000002B  0x01 0x000000000000002B  0x01 0x000000000000002B  0x01 0x000000000000002B  0x01 0x000000000000002B  0x01 0x000000000000002B  0x01 0x000000000000002B  
0x002C       0b0       0b1      0b0      0b0       0b0  0x00 0xXXXXXXXX00000000  0x00 0x000000XXXXXXXXXX  0x00 0xXXXXXXXXXXXXXXXX  0x01 0xXXXXXXXX00000000  0x01 0x0000000000000000  0x01 0xXXXXXXXX00000000  0x01 0x0000000000000000  0x01 0xXXXXXXXX00000000  0x01 0x0000000000000000  0x01 0xXXXXXXXX00000000  0x01 0x0000000000000000  0x01 0xXXXXXXXX00000000  0x01 0x0000000000000000  0x01 0xXXXXXXXX00002890  0x01 0x007E0D9B8119C008  0x01 0xXXXXXXXX00000000  0x01 0x0000000000000000  0x0X 0xXXXXXXXXXXXXXXXX  0x01 0x000000000000002C  0x01 0x000000000000002C  0x01 0x000000000000002C  0x01 0x000000000000002C  0x01 0x000000000000002C  0x01 0x000000000000002C  0x01 0x000000000000002C  0x01 0x000000000000002C  0x01 0x000000000000002C  0x01 0x000000000000002C  0x01 0x000000000000002C  0x01 0x000000000000002C  0x01 0x000000000000002C  0x01 0x000000000000002C  0x01 0x000000000000002C  0x01 0x000000000000002C  0x01 0x000000000000002C  0x01 0x000000000000002C  0x01 0x000000000000002C  0x01 0x000000000000002C  0x01 0x000000000000002C  0x01 0x000000000000002C  0x01 0x000000000000002C  0x01 0x000000000000002C  0x01 0x000000000000002C  0x01 0x000000000000002C  0x01 0x000000000000002C  0x01 0x000000000000002C  0x01 0x000000000000002C  0x01 0x000000000000002C  0x01 0x000000000000002C  0x01 0x000000000000002C  0x01 0x000000000000002C  0x01 0x000000000000002C  0x01 0x000000000000002C  0x01 0x000000000000002C  
0x002D       0b0       0b1      0b0      0b0       0b0  0x00 0xXXXXXXXX00000000  0x00 0x000000XXXXXXXXXX  0x00 0xXXXXXXXXXXXXXXXX  0x01 0xXXXXXXXX00000000  0x01 0x0000000000000000  0x01 0xXXXXXXXX00000000  0x01 0x0000000000000000  0x01 0xXXXXXXXX00000000  0x01 0x0000000000000000  0x01 0xXXXXXXXX00000000  0x01 0x0000000000000000  0x01 0xXXXXXXXX00000000  0x01 0x0000000000000000  0x01 0xXXXXXXXX000038A0  0x01 0x007E65D3211E800C  0x01 0xXXXXXXXX00000000  0x01 0x0000000000000000  0x0X 0xXXXXXXXXXXXXXXXX  0x01 0x000000000000002D  0x01 0x000000000000002D  0x01 0x000000000000002D  0x01 0x000000000000002D  0x01 0x000000000000002D  0x01 0x000000000000002D  0x01 0x000000000000002D  0x01 0x000000000000002D  0x01 0x000000000000002D  0x01 0x000000000000002D  0x01 0x000000000000002D  0x01 0x000000000000002D  0x01 0x000000000000002D  0x01 0x000000000000002D  0x01 0x000000000000002D  0x01 0x000000000000002D  0x01 0x000000000000002D  0x01 0x000000000000002D  0x01 0x000000000000002D  0x01 0x000000000000002D  0x01 0x000000000000002D  0x01 0x000000000000002D  0x01 0x000000000000002D  0x01 0x000000000000002D  0x01 0x000000000000002D  0x01 0x000000000000002D  0x01 0x000000000000002D  0x01 0x000000000000002D  0x01 0x000000000000002D  0x01 0x000000000000002D  0x01 0x000000000000002D  0x01 0x000000000000002D  0x01 0x000000000000002D  0x01 0x000000000000002D  0x01 0x000000000000002D  0x01 0x000000000000002D  
0x002E       0b0       0b1      0b0      0b0       0b0  0x00 0xXXXXXXXX00000000  0x00 0x000000XXXXXXXXXX  0x00 0xXXXXXXXXXXXXXXXX  0x01 0xXXXXXXXX00000000  0x01 0x0000000000000000  0x01 0xXXXXXXXX00000000  0x01 0x0000000000000000  0x01 0xXXXXXXXX00000000  0x01 0x0000000000000000  0x01 0xXXXXXXXX00000000  0x01 0x0000000000000000  0x01 0xXXXXXXXX00000000  0x01 0x0000000000000000  0x01 0xXXXXXXXX000038A0  0x01 0x007E65D3211E800C  0x01 0xXXXXXXXX00000000  0x01 0x0000000000000000  0x0X 0xXXXXXXXXXXXXXXXX  0x01 0x000000000000002E  0x01 0x000000000000002E  0x01 0x000000000000002E  0x01 0x000000000000002E  0x01 0x000000000000002E  0x01 0x000000000000002E  0x01 0x000000000000002E  0x01 0x000000000000002E  0x01 0x000000000000002E  0x01 0x000000000000002E  0x01 0x000000000000002E  0x01 0x000000000000002E  0x01 0x000000000000002E  0x01 0x000000000000002E  0x01 0x000000000000002E  0x01 0x000000000000002E  0x01 0x000000000000002E  0x01 0x000000000000002E  0x01 0x000000000000002E  0x01 0x000000000000002E  0x01 0x000000000000002E  0x01 0x000000000000002E  0x01 0x000000000000002E  0x01 0x000000000000002E  0x01 0x000000000000002E  0x01 0x000000000000002E  0x01 0x000000000000002E  0x01 0x000000000000002E  0x01 0x000000000000002E  0x01 0x000000000000002E  0x01 0x000000000000002E  0x01 0x000000000000002E  0x01 0x000000000000002E  0x01 0x000000000000002E  0x01 0x000000000000002E  0x01 0x000000000000002E  
0x002F       0b0       0b1      0b0      0b0       0b0  0x00 0xXXXXXXXX00000000  0x00 0x000000XXXXXXXXXX  0x00 0xXXXXXXXXXXXXXXXX  0x01 0xXXXXXXXX00000000  0x01 0x0000000000000000  0x01 0xXXXXXXXX00000000  0x01 0x0000000000000000  0x01 0xXXXXXXXX00000000  0x01 0x0000000000000000  0x01 0xXXXXXXXX00000000  0x01 0x0000000000000000  0x01 0xXXXXXXXX00000000  0x01 0x0000000000000000  0x01 0xXXXXXXXX000028F0  0x01 0x0000C51AC9468009  0x01 0xXXXXXXXX00000000  0x01 0x0000000000000000  0x0X 0xXXXXXXXXXXXXXXXX  0x01 0x000000000000002F  0x01 0x000000000000002F  0x01 0x000000000000002F  0x01 0x000000000000002F  0x01 0x000000000000002F  0x01 0x000000000000002F  0x01 0x000000000000002F  0x01 0x000000000000002F  0x01 0x000000000000002F  0x01 0x000000000000002F  0x01 0x000000000000002F  0x01 0x000000000000002F  0x01 0x000000000000002F  0x01 0x000000000000002F  0x01 0x000000000000002F  0x01 0x000000000000002F  0x01 0x000000000000002F  0x01 0x000000000000002F  0x01 0x000000000000002F  0x01 0x000000000000002F  0x01 0x000000000000002F  0x01 0x000000000000002F  0x01 0x000000000000002F  0x01 0x000000000000002F  0x01 0x000000000000002F  0x01 0x000000000000002F  0x01 0x000000000000002F  0x01 0x000000000000002F  0x01 0x000000000000002F  0x01 0x000000000000002F  0x01 0x000000000000002F  0x01 0x000000000000002F  0x01 0x000000000000002F  0x01 0x000000000000002F  0x01 0x000000000000002F  0x01 0x000000000000002F  
0x0030       0b0       0b1      0b0      0b0       0b0  0x00 0xXXXXXXXX00000000  0x00 0x000000XXXXXXXXXX  0x00 0xXXXXXXXXXXXXXXXX  0x01 0xXXXXXXXX00000000  0x01 0x0000000000000000  0x01 0xXXXXXXXX00000000  0x01 0x0000000000000000  0x01 0xXXXXXXXX00000000  0x01 0x0000000000000000  0x01 0xXXXXXXXX00000000  0x01 0x0000000000000000  0x01 0xXXXXXXXX00000000  0x01 0x0000000000000000  0x01 0xXXXXXXXX00000000  0x01 0x0000000000000000  0x01 0xXXXXXXXX00000000  0x01 0x0000000000000000  0x0X 0xXXXXXXXXXXXXXXXX  0x01 0x0000000000000030  0x01 0x0000000000000030  0x01 0x0000000000000030  0x01 0x0000000000000030  0x01 0x0000000000000030  0x01 0x0000000000000030  0x01 0x0000000000000030  0x01 0x0000000000000030  0x01 0x0000000000000030  0x01 0x0000000000000030  0x01 0x0000000000000030  0x01 0x0000000000000030  0x01 0x0000000000000030  0x01 0x0000000000000030  0x01 0x0000000000000030  0x01 0x0000000000000030  0x01 0x0000000000000030  0x01 0x0000000000000030  0x01 0x0000000000000030  0x01 0x0000000000000030  0x01 0x0000000000000030  0x01 0x0000000000000030  0x01 0x0000000000000030  0x01 0x0000000000000030  0x01 0x0000000000000030  0x01 0x0000000000000030  0x01 0x0000000000000030  0x01 0x0000000000000030  0x01 0x0000000000000030  0x01 0x0000000000000030  0x01 0x0000000000000030  0x01 0x0000000000000030  0x01 0x0000000000000030  0x01 0x0000000000000030  0x01 0x0000000000000030  0x01 0x0000000000000030  
0x0031       0b0       0b1      0b0      0b0       0b0  0x00 0xXXXXXXXX00000000  0x00 0x000000XXXXXXXXXX  0x00 0xXXXXXXXXXXXXXXXX  0x01 0xXXXXXXXX00000000  0x01 0x0000000000000000  0x01 0xXXXXXXXX00000000  0x01 0x0000000000000000  0x01 0xXXXXXXXX00000000  0x01 0x0000000000000000  0x01 0xXXXXXXXX00000000  0x01 0x0000000000000000  0x01 0xXXXXXXXX00000000  0x01 0x0000000000000000  0x01 0xXXXXXXXX00000000  0x01 0x0000000000000000  0x01 0xXXXXXXXX00000000  0x01 0x0000000000000000  0x0X 0xXXXXXXXXXXXXXXXX  0x01 0x0000000000000031  0x01 0x0000000000000031  0x01 0x0000000000000031  0x01 0x0000000000000031  0x01 0x0000000000000031  0x01 0x0000000000000031  0x01 0x0000000000000031  0x01 0x0000000000000031  0x01 0x0000000000000031  0x01 0x0000000000000031  0x01 0x0000000000000031  0x01 0x0000000000000031  0x01 0x0000000000000031  0x01 0x0000000000000031  0x01 0x0000000000000031  0x01 0x0000000000000031  0x01 0x0000000000000031  0x01 0x0000000000000031  0x01 0x0000000000000031  0x01 0x0000000000000031  0x01 0x0000000000000031  0x01 0x0000000000000031  0x01 0x0000000000000031  0x01 0x0000000000000031  0x01 0x0000000000000031  0x01 0x0000000000000031  0x01 0x0000000000000031  0x01 0x0000000000000031  0x01 0x0000000000000031  0x01 0x0000000000000031  0x01 0x0000000000000031  0x01 0x0000000000000031  0x01 0x0000000000000031  0x01 0x0000000000000031  0x01 0x0000000000000031  0x01 0x0000000000000031  
0x0032       0b0       0b1      0b0      0b0       0b0  0x00 0xXXXXXXXX00000000  0x00 0x000000XXXXXXXXXX  0x00 0xXXXXXXXXXXXXXXXX  0x01 0xXXXXXXXX00000000  0x01 0x0000000000000000  0x01 0xXXXXXXXX00000000  0x01 0x0000000000000000  0x01 0xXXXXXXXX00000000  0x01 0x0000000000000000  0x01 0xXXXXXXXX00000000  0x01 0x0000000000000000  0x01 0xXXXXXXXX00000000  0x01 0x0000000000000000  0x01 0xXXXXXXXX00000000  0x01 0x0000000000000000  0x01 0xXXXXXXXX00000000  0x01 0x0000000000000000  0x0X 0xXXXXXXXXXXXXXXXX  0x01 0x0000000000000032  0x01 0x0000000000000032  0x01 0x0000000000000032  0x01 0x0000000000000032  0x01 0x0000000000000032  0x01 0x0000000000000032  0x01 0x0000000000000032  0x01 0x0000000000000032  0x01 0x0000000000000032  0x01 0x0000000000000032  0x01 0x0000000000000032  0x01 0x0000000000000032  0x01 0x0000000000000032  0x01 0x0000000000000032  0x01 0x0000000000000032  0x01 0x0000000000000032  0x01 0x0000000000000032  0x01 0x0000000000000032  0x01 0x0000000000000032  0x01 0x0000000000000032  0x01 0x0000000000000032  0x01 0x0000000000000032  0x01 0x0000000000000032  0x01 0x0000000000000032  0x01 0x0000000000000032  0x01 0x0000000000000032  0x01 0x0000000000000032  0x01 0x0000000000000032  0x01 0x0000000000000032  0x01 0x0000000000000032  0x01 0x0000000000000032  0x01 0x0000000000000032  0x01 0x0000000000000032  0x01 0x0000000000000032  0x01 0x0000000000000032  0x01 0x0000000000000032  
0x0033       0b0       0b1      0b0      0b0       0b0  0x00 0xXXXXXXXX00000000  0x00 0x000000XXXXXXXXXX  0x00 0xXXXXXXXXXXXXXXXX  0x01 0xXXXXXXXX00000000  0x01 0x0000000000000000  0x01 0xXXXXXXXX00000000  0x01 0x0000000000000000  0x01 0xXXXXXXXX00000000  0x01 0x0000000000000000  0x01 0xXXXXXXXX00000000  0x01 0x0000000000000000  0x01 0xXXXXXXXX00000000  0x01 0x0000000000000000  0x01 0xXXXXXXXX00000000  0x01 0x0000000000000000  0x01 0xXXXXXXXX00000000  0x01 0x0000000000000000  0x0X 0xXXXXXXXXXXXXXXXX  0x01 0x0000000000000033  0x01 0x0000000000000033  0x01 0x0000000000000033  0x01 0x0000000000000033  0x01 0x0000000000000033  0x01 0x0000000000000033  0x01 0x0000000000000033  0x01 0x0000000000000033  0x01 0x0000000000000033  0x01 0x0000000000000033  0x01 0x0000000000000033  0x01 0x0000000000000033  0x01 0x0000000000000033  0x01 0x0000000000000033  0x01 0x0000000000000033  0x01 0x0000000000000033  0x01 0x0000000000000033  0x01 0x0000000000000033  0x01 0x0000000000000033  0x01 0x0000000000000033  0x01 0x0000000000000033  0x01 0x0000000000000033  0x01 0x0000000000000033  0x01 0x0000000000000033  0x01 0x0000000000000033  0x01 0x0000000000000033  0x01 0x0000000000000033  0x01 0x0000000000000033  0x01 0x0000000000000033  0x01 0x0000000000000033  0x01 0x0000000000000033  0x01 0x0000000000000033  0x01 0x0000000000000033  0x01 0x0000000000000033  0x01 0x0000000000000033  0x01 0x0000000000000033  
0x0034       0b0       0b1      0b0      0b0       0b0  0x00 0xXXXXXXXX00000000  0x00 0x000000XXXXXXXXXX  0x00 0xXXXXXXXXXXXXXXXX  0x01 0xXXXXXXXX00000000  0x01 0x0000000000000000  0x01 0xXXXXXXXX00000000  0x01 0x0000000000000000  0x01 0xXXXXXXXX00000000  0x01 0x0000000000000000  0x01 0xXXXXXXXX00000000  0x01 0x0000000000000000  0x01 0xXXXXXXXX00000000  0x01 0x0000000000000000  0x01 0xXXXXXXXX00000000  0x01 0x0000000000000000  0x01 0xXXXXXXXX00000000  0x01 0x0000000000000000  0x0X 0xXXXXXXXXXXXXXXXX  0x01 0x0000000000000034  0x01 0x0000000000000034  0x01 0x0000000000000034  0x01 0x0000000000000034  0x01 0x0000000000000034  0x01 0x0000000000000034  0x01 0x0000000000000034  0x01 0x0000000000000034  0x01 0x0000000000000034  0x01 0x0000000000000034  0x01 0x0000000000000034  0x01 0x0000000000000034  0x01 0x0000000000000034  0x01 0x0000000000000034  0x01 0x0000000000000034  0x01 0x0000000000000034  0x01 0x0000000000000034  0x01 0x0000000000000034  0x01 0x0000000000000034  0x01 0x0000000000000034  0x01 0x0000000000000034  0x01 0x0000000000000034  0x01 0x0000000000000034  0x01 0x0000000000000034  0x01 0x0000000000000034  0x01 0x0000000000000034  0x01 0x0000000000000034  0x01 0x0000000000000034  0x01 0x0000000000000034  0x01 0x0000000000000034  0x01 0x0000000000000034  0x01 0x0000000000000034  0x01 0x0000000000000034  0x01 0x0000000000000034  0x01 0x0000000000000034  0x01 0x0000000000000034  
0x0035       0b0       0b1      0b0      0b0       0b0  0x00 0xXXXXXXXX00000000  0x00 0x000000XXXXXXXXXX  0x00 0xXXXXXXXXXXXXXXXX  0x01 0xXXXXXXXX00000000  0x01 0x0000000000000000  0x01 0xXXXXXXXX00000000  0x01 0x0000000000000000  0x01 0xXXXXXXXX00000000  0x01 0x0000000000000000  0x01 0xXXXXXXXX00000000  0x01 0x0000000000000000  0x01 0xXXXXXXXX00000000  0x01 0x0000000000000000  0x01 0xXXXXXXXX00000000  0x01 0x0000000000000000  0x01 0xXXXXXXXX00000000  0x01 0x0000000000000000  0x0X 0xXXXXXXXXXXXXXXXX  0x01 0x0000000000000035  0x01 0x0000000000000035  0x01 0x0000000000000035  0x01 0x0000000000000035  0x01 0x0000000000000035  0x01 0x0000000000000035  0x01 0x0000000000000035  0x01 0x0000000000000035  0x01 0x0000000000000035  0x01 0x0000000000000035  0x01 0x0000000000000035  0x01 0x0000000000000035  0x01 0x0000000000000035  0x01 0x0000000000000035  0x01 0x0000000000000035  0x01 0x0000000000000035  0x01 0x0000000000000035  0x01 0x0000000000000035  0x01 0x0000000000000035  0x01 0x0000000000000035  0x01 0x0000000000000035  0x01 0x0000000000000035  0x01 0x0000000000000035  0x01 0x0000000000000035  0x01 0x0000000000000035  0x01 0x0000000000000035  0x01 0x0000000000000035  0x01 0x0000000000000035  0x01 0x0000000000000035  0x01 0x0000000000000035  0x01 0x0000000000000035  0x01 0x0000000000000035  0x01 0x0000000000000035  0x01 0x0000000000000035  0x01 0x0000000000000035  0x01 0x0000000000000035  
0x0036       0b0       0b1      0b0      0b0       0b0  0x00 0xXXXXXXXX00000000  0x00 0x000000XXXXXXXXXX  0x00 0xXXXXXXXXXXXXXXXX  0x01 0xXXXXXXXX00000000  0x01 0x0000000000000000  0x01 0xXXXXXXXX00000000  0x01 0x0000000000000000  0x01 0xXXXXXXXX00000000  0x01 0x0000000000000000  0x01 0xXXXXXXXX00000000  0x01 0x0000000000000000  0x01 0xXXXXXXXX00000000  0x01 0x0000000000000000  0x01 0xXXXXXXXX00000000  0x01 0x0000000000000000  0x01 0xXXXXXXXX00000000  0x01 0x0000000000000000  0x0X 0xXXXXXXXXXXXXXXXX  0x01 0x0000000000000036  0x01 0x0000000000000036  0x01 0x0000000000000036  0x01 0x0000000000000036  0x01 0x0000000000000036  0x01 0x0000000000000036  0x01 0x0000000000000036  0x01 0x0000000000000036  0x01 0x0000000000000036  0x01 0x0000000000000036  0x01 0x0000000000000036  0x01 0x0000000000000036  0x01 0x0000000000000036  0x01 0x0000000000000036  0x01 0x0000000000000036  0x01 0x0000000000000036  0x01 0x0000000000000036  0x01 0x0000000000000036  0x01 0x0000000000000036  0x01 0x0000000000000036  0x01 0x0000000000000036  0x01 0x0000000000000036  0x01 0x0000000000000036  0x01 0x0000000000000036  0x01 0x0000000000000036  0x01 0x0000000000000036  0x01 0x0000000000000036  0x01 0x0000000000000036  0x01 0x0000000000000036  0x01 0x0000000000000036  0x01 0x0000000000000036  0x01 0x0000000000000036  0x01 0x0000000000000036  0x01 0x0000000000000036  0x01 0x0000000000000036  0x01 0x0000000000000036  
0x0037       0b0       0b1      0b0      0b0       0b0  0x00 0xXXXXXXXX00000000  0x00 0x000000XXXXXXXXXX  0x00 0xXXXXXXXXXXXXXXXX  0x01 0xXXXXXXXX00000000  0x01 0x0000000000000000  0x01 0xXXXXXXXX00000000  0x01 0x0000000000000000  0x01 0xXXXXXXXX00000000  0x01 0x0000000000000000  0x01 0xXXXXXXXX00000000  0x01 0x0000000000000000  0x01 0xXXXXXXXX00000000  0x01 0x0000000000000000  0x01 0xXXXXXXXX00000000  0x01 0x0000000000000000  0x01 0xXXXXXXXX00000000  0x01 0x0000000000000000  0x0X 0xXXXXXXXXXXXXXXXX  0x01 0x0000000000000037  0x01 0x0000000000000037  0x01 0x0000000000000037  0x01 0x0000000000000037  0x01 0x0000000000000037  0x01 0x0000000000000037  0x01 0x0000000000000037  0x01 0x0000000000000037  0x01 0x0000000000000037  0x01 0x0000000000000037  0x01 0x0000000000000037  0x01 0x0000000000000037  0x01 0x0000000000000037  0x01 0x0000000000000037  0x01 0x0000000000000037  0x01 0x0000000000000037  0x01 0x0000000000000037  0x01 0x0000000000000037  0x01 0x0000000000000037  0x01 0x0000000000000037  0x01 0x0000000000000037  0x01 0x0000000000000037  0x01 0x0000000000000037  0x01 0x0000000000000037  0x01 0x0000000000000037  0x01 0x0000000000000037  0x01 0x0000000000000037  0x01 0x0000000000000037  0x01 0x0000000000000037  0x01 0x0000000000000037  0x01 0x0000000000000037  0x01 0x0000000000000037  0x01 0x0000000000000037  0x01 0x0000000000000037  0x01 0x0000000000000037  0x01 0x0000000000000037  
0x0038       0b0       0b1      0b0      0b0       0b0  0x00 0xXXXXXXXX00000000  0x00 0x000000XXXXXXXXXX  0x00 0xXXXXXXXXXXXXXXXX  0x01 0xXXXXXXXX00000000  0x01 0x0000000000000000  0x01 0xXXXXXXXX00000000  0x01 0x0000000000000000  0x01 0xXXXXXXXX00000000  0x01 0x0000000000000000  0x01 0xXXXXXXXX00000000  0x01 0x0000000000000000  0x01 0xXXXXXXXX00000000  0x01 0x0000000000000000  0x01 0xXXXXXXXX00000000  0x01 0x0000000000000000  0x01 0xXXXXXXXX00000000  0x01 0x0000000000000000  0x0X 0xXXXXXXXXXXXXXXXX  0x01 0x0000000000000038  0x01 0x0000000000000038  0x01 0x0000000000000038  0x01 0x0000000000000038  0x01 0x0000000000000038  0x01 0x0000000000000038  0x01 0x0000000000000038  0x01 0x0000000000000038  0x01 0x0000000000000038  0x01 0x0000000000000038  0x01 0x0000000000000038  0x01 0x0000000000000038  0x01 0x0000000000000038  0x01 0x0000000000000038  0x01 0x0000000000000038  0x01 0x0000000000000038  0x01 0x0000000000000038  0x01 0x0000000000000038  0x01 0x0000000000000038  0x01 0x0000000000000038  0x01 0x0000000000000038  0x01 0x0000000000000038  0x01 0x0000000000000038  0x01 0x0000000000000038  0x01 0x0000000000000038  0x01 0x0000000000000038  0x01 0x0000000000000038  0x01 0x0000000000000038  0x01 0x0000000000000038  0x01 0x0000000000000038  0x01 0x0000000000000038  0x01 0x0000000000000038  0x01 0x0000000000000038  0x01 0x0000000000000038  0x01 0x0000000000000038  0x01 0x0000000000000038  
0x0039       0b0       0b1      0b0      0b0       0b0  0x00 0xXXXXXXXX00000000  0x00 0x000000XXXXXXXXXX  0x00 0xXXXXXXXXXXXXXXXX  0x01 0xXXXXXXXX00000000  0x01 0x0000000000000000  0x01 0xXXXXXXXX00000000  0x01 0x0000000000000000  0x01 0xXXXXXXXX00000000  0x01 0x0000000000000000  0x01 0xXXXXXXXX00000000  0x01 0x0000000000000000  0x01 0xXXXXXXXX00000000  0x01 0x0000000000000000  0x01 0xXXXXXXXX00000000  0x01 0x0000000000000000  0x01 0xXXXXXXXX00000000  0x01 0x0000000000000000  0x0X 0xXXXXXXXXXXXXXXXX  0x01 0x0000000000000039  0x01 0x0000000000000039  0x01 0x0000000000000039  0x01 0x0000000000000039  0x01 0x0000000000000039  0x01 0x0000000000000039  0x01 0x0000000000000039  0x01 0x0000000000000039  0x01 0x0000000000000039  0x01 0x0000000000000039  0x01 0x0000000000000039  0x01 0x0000000000000039  0x01 0x0000000000000039  0x01 0x0000000000000039  0x01 0x0000000000000039  0x01 0x0000000000000039  0x01 0x0000000000000039  0x01 0x0000000000000039  0x01 0x0000000000000039  0x01 0x0000000000000039  0x01 0x0000000000000039  0x01 0x0000000000000039  0x01 0x0000000000000039  0x01 0x0000000000000039  0x01 0x0000000000000039  0x01 0x0000000000000039  0x01 0x0000000000000039  0x01 0x0000000000000039  0x01 0x0000000000000039  0x01 0x0000000000000039  0x01 0x0000000000000039  0x01 0x0000000000000039  0x01 0x0000000000000039  0x01 0x0000000000000039  0x01 0x0000000000000039  0x01 0x0000000000000039  
0x003A       0b0       0b1      0b0      0b0       0b0  0x00 0xXXXXXXXX00000000  0x00 0x000000XXXXXXXXXX  0x00 0xXXXXXXXXXXXXXXXX  0x01 0xXXXXXXXX00000000  0x01 0x0000000000000000  0x01 0xXXXXXXXX00000000  0x01 0x0000000000000000  0x01 0xXXXXXXXX00000000  0x01 0x0000000000000000  0x01 0xXXXXXXXX00000000  0x01 0x0000000000000000  0x01 0xXXXXXXXX00000000  0x01 0x0000000000000000  0x01 0xXXXXXXXX00000000  0x01 0x0000000000000000  0x01 0xXXXXXXXX00000000  0x01 0x0000000000000000  0x0X 0xXXXXXXXXXXXXXXXX  0x01 0x000000000000003A  0x01 0x000000000000003A  0x01 0x000000000000003A  0x01 0x000000000000003A  0x01 0x000000000000003A  0x01 0x000000000000003A  0x01 0x000000000000003A  0x01 0x000000000000003A  0x01 0x000000000000003A  0x01 0x000000000000003A  0x01 0x000000000000003A  0x01 0x000000000000003A  0x01 0x000000000000003A  0x01 0x000000000000003A  0x01 0x000000000000003A  0x01 0x000000000000003A  0x01 0x000000000000003A  0x01 0x000000000000003A  0x01 0x000000000000003A  0x01 0x000000000000003A  0x01 0x000000000000003A  0x01 0x000000000000003A  0x01 0x000000000000003A  0x01 0x000000000000003A  0x01 0x000000000000003A  0x01 0x000000000000003A  0x01 0x000000000000003A  0x01 0x000000000000003A  0x01 0x000000000000003A  0x01 0x000000000000003A  0x01 0x000000000000003A  0x01 0x000000000000003A  0x01 0x000000000000003A  0x01 0x000000000000003A  0x01 0x000000000000003A  0x01 0x000000000000003A  
0x003B       0b0       0b1      0b0      0b0       0b0  0x00 0xXXXXXXXX00000000  0x00 0x000000XXXXXXXXXX  0x00 0xXXXXXXXXXXXXXXXX  0x01 0xXXXXXXXX00000000  0x01 0x0000000000000000  0x01 0xXXXXXXXX00000000  0x01 0x0000000000000000  0x01 0xXXXXXXXX00000000  0x01 0x0000000000000000  0x01 0xXXXXXXXX00000000  0x01 0x0000000000000000  0x01 0xXXXXXXXX00000000  0x01 0x0000000000000000  0x01 0xXXXXXXXX00000000  0x01 0x0000000000000000  0x01 0xXXXXXXXX00000000  0x01 0x0000000000000000  0x0X 0xXXXXXXXXXXXXXXXX  0x01 0x000000000000003B  0x01 0x000000000000003B  0x01 0x000000000000003B  0x01 0x000000000000003B  0x01 0x000000000000003B  0x01 0x000000000000003B  0x01 0x000000000000003B  0x01 0x000000000000003B  0x01 0x000000000000003B  0x01 0x000000000000003B  0x01 0x000000000000003B  0x01 0x000000000000003B  0x01 0x000000000000003B  0x01 0x000000000000003B  0x01 0x000000000000003B  0x01 0x000000000000003B  0x01 0x000000000000003B  0x01 0x000000000000003B  0x01 0x000000000000003B  0x01 0x000000000000003B  0x01 0x000000000000003B  0x01 0x000000000000003B  0x01 0x000000000000003B  0x01 0x000000000000003B  0x01 0x000000000000003B  0x01 0x000000000000003B  0x01 0x000000000000003B  0x01 0x000000000000003B  0x01 0x000000000000003B  0x01 0x000000000000003B  0x01 0x000000000000003B  0x01 0x000000000000003B  0x01 0x000000000000003B  0x01 0x000000000000003B  0x01 0x000000000000003B  0x01 0x000000000000003B  
0x003C       0b0       0b1      0b0      0b0       0b0  0x00 0xXXXXXXXX00000000  0x00 0x000000XXXXXXXXXX  0x00 0xXXXXXXXXXXXXXXXX  0x01 0xXXXXXXXX00000000  0x01 0x0000000000000000  0x01 0xXXXXXXXX00000000  0x01 0x0000000000000000  0x01 0xXXXXXXXX00000000  0x01 0x0000000000000000  0x01 0xXXXXXXXX00000000  0x01 0x0000000000000000  0x01 0xXXXXXXXX00000000  0x01 0x0000000000000000  0x01 0xXXXXXXXX00000000  0x01 0x0000000000000000  0x01 0xXXXXXXXX00000000  0x01 0x0000000000000000  0x0X 0xXXXXXXXXXXXXXXXX  0x01 0x000000000000003C  0x01 0x000000000000003C  0x01 0x000000000000003C  0x01 0x000000000000003C  0x01 0x000000000000003C  0x01 0x000000000000003C  0x01 0x000000000000003C  0x01 0x000000000000003C  0x01 0x000000000000003C  0x01 0x000000000000003C  0x01 0x000000000000003C  0x01 0x000000000000003C  0x01 0x000000000000003C  0x01 0x000000000000003C  0x01 0x000000000000003C  0x01 0x000000000000003C  0x01 0x000000000000003C  0x01 0x000000000000003C  0x01 0x000000000000003C  0x01 0x000000000000003C  0x01 0x000000000000003C  0x01 0x000000000000003C  0x01 0x000000000000003C  0x01 0x000000000000003C  0x01 0x000000000000003C  0x01 0x000000000000003C  0x01 0x000000000000003C  0x01 0x000000000000003C  0x01 0x000000000000003C  0x01 0x000000000000003C  0x01 0x000000000000003C  0x01 0x000000000000003C  0x01 0x000000000000003C  0x01 0x000000000000003C  0x01 0x000000000000003C  0x01 0x000000000000003C  
0x003D       0b0       0b1      0b0      0b0       0b0  0x00 0xXXXXXXXX00000000  0x00 0x000000XXXXXXXXXX  0x00 0xXXXXXXXXXXXXXXXX  0x01 0xXXXXXXXX00000000  0x01 0x0000000000000000  0x01 0xXXXXXXXX00000000  0x01 0x0000000000000000  0x01 0xXXXXXXXX00000000  0x01 0x0000000000000000  0x01 0xXXXXXXXX00000000  0x01 0x0000000000000000  0x01 0xXXXXXXXX00000000  0x01 0x0000000000000000  0x01 0xXXXXXXXX00000000  0x01 0x0000000000000000  0x01 0xXXXXXXXX00000000  0x01 0x0000000000000000  0x0X 0xXXXXXXXXXXXXXXXX  0x01 0x000000000000003D  0x01 0x000000000000003D  0x01 0x000000000000003D  0x01 0x000000000000003D  0x01 0x000000000000003D  0x01 0x000000000000003D  0x01 0x000000000000003D  0x01 0x000000000000003D  0x01 0x000000000000003D  0x01 0x000000000000003D  0x01 0x000000000000003D  0x01 0x000000000000003D  0x01 0x000000000000003D  0x01 0x000000000000003D  0x01 0x000000000000003D  0x01 0x000000000000003D  0x01 0x000000000000003D  0x01 0x000000000000003D  0x01 0x000000000000003D  0x01 0x000000000000003D  0x01 0x000000000000003D  0x01 0x000000000000003D  0x01 0x000000000000003D  0x01 0x000000000000003D  0x01 0x000000000000003D  0x01 0x000000000000003D  0x01 0x000000000000003D  0x01 0x000000000000003D  0x01 0x000000000000003D  0x01 0x000000000000003D  0x01 0x000000000000003D  0x01 0x000000000000003D  0x01 0x000000000000003D  0x01 0x000000000000003D  0x01 0x000000000000003D  0x01 0x000000000000003D  
0x003E       0b0       0b1      0b0      0b0       0b0  0x00 0xXXXXXXXX00000000  0x00 0x000000XXXXXXXXXX  0x00 0xXXXXXXXXXXXXXXXX  0x01 0xXXXXXXXX00000000  0x01 0x0000000000000000  0x01 0xXXXXXXXX00000000  0x01 0x0000000000000000  0x01 0xXXXXXXXX00000000  0x01 0x0000000000000000  0x01 0xXXXXXXXX00000000  0x01 0x0000000000000000  0x01 0xXXXXXXXX00000000  0x01 0x0000000000000000  0x01 0xXXXXXXXX00000000  0x01 0x0000000000000000  0x01 0xXXXXXXXX00000000  0x01 0x0000000000000000  0x0X 0xXXXXXXXXXXXXXXXX  0x01 0x000000000000003E  0x01 0x000000000000003E  0x01 0x000000000000003E  0x01 0x000000000000003E  0x01 0x000000000000003E  0x01 0x000000000000003E  0x01 0x000000000000003E  0x01 0x000000000000003E  0x01 0x000000000000003E  0x01 0x000000000000003E  0x01 0x000000000000003E  0x01 0x000000000000003E  0x01 0x000000000000003E  0x01 0x000000000000003E  0x01 0x000000000000003E  0x01 0x000000000000003E  0x01 0x000000000000003E  0x01 0x000000000000003E  0x01 0x000000000000003E  0x01 0x000000000000003E  0x01 0x000000000000003E  0x01 0x000000000000003E  0x01 0x000000000000003E  0x01 0x000000000000003E  0x01 0x000000000000003E  0x01 0x000000000000003E  0x01 0x000000000000003E  0x01 0x000000000000003E  0x01 0x000000000000003E  0x01 0x000000000000003E  0x01 0x000000000000003E  0x01 0x000000000000003E  0x01 0x000000000000003E  0x01 0x000000000000003E  0x01 0x000000000000003E  0x01 0x000000000000003E  
0x003F       0b0       0b1      0b0      0b0       0b0  0x00 0xXXXXXXXX00000000  0x00 0x000000XXXXXXXXXX  0x00 0xXXXXXXXXXXXXXXXX  0x01 0xXXXXXXXX00000000  0x01 0x0000000000000000  0x01 0xXXXXXXXX00000000  0x01 0x0000000000000000  0x01 0xXXXXXXXX00000000  0x01 0x0000000000000000  0x01 0xXXXXXXXX00000000  0x01 0x0000000000000000  0x01 0xXXXXXXXX00000000  0x01 0x0000000000000000  0x01 0xXXXXXXXX00000000  0x01 0x0000000000000000  0x01 0xXXXXXXXX00000000  0x01 0x0000000000000000  0x0X 0xXXXXXXXXXXXXXXXX  0x01 0x000000000000003F  0x01 0x000000000000003F  0x01 0x000000000000003F  0x01 0x000000000000003F  0x01 0x000000000000003F  0x01 0x000000000000003F  0x01 0x000000000000003F  0x01 0x000000000000003F  0x01 0x000000000000003F  0x01 0x000000000000003F  0x01 0x000000000000003F  0x01 0x000000000000003F  0x01 0x000000000000003F  0x01 0x000000000000003F  0x01 0x000000000000003F  0x01 0x000000000000003F  0x01 0x000000000000003F  0x01 0x000000000000003F  0x01 0x000000000000003F  0x01 0x000000000000003F  0x01 0x000000000000003F  0x01 0x000000000000003F  0x01 0x000000000000003F  0x01 0x000000000000003F  0x01 0x000000000000003F  0x01 0x000000000000003F  0x01 0x000000000000003F  0x01 0x000000000000003F  0x01 0x000000000000003F  0x01 0x000000000000003F  0x01 0x000000000000003F  0x01 0x000000000000003F  0x01 0x000000000000003F  0x01 0x000000000000003F  0x01 0x000000000000003F  0x01 0x000000000000003F  
0x0040       0b0       0b1      0b0      0b0       0b0  0x00 0xXXXXXXXX00000000  0x00 0x000000XXXXXXXXXX  0x00 0xXXXXXXXXXXXXXXXX  0x01 0xXXXXXXXX00000000  0x01 0x0000000000000000  0x01 0xXXXXXXXX00000000  0x01 0x0000000000000000  0x01 0xXXXXXXXX00000000  0x01 0x0000000000000000  0x01 0xXXXXXXXX00000000  0x01 0x0000000000000000  0x01 0xXXXXXXXX00000000  0x01 0x0000000000000000  0x01 0xXXXXXXXX00000000  0x01 0x0000000000000000  0x01 0xXXXXXXXX00000000  0x01 0x0000000000000000  0x0X 0xXXXXXXXXXXXXXXXX  0x01 0x0000000000000040  0x01 0x0000000000000040  0x01 0x0000000000000040  0x01 0x0000000000000040  0x01 0x0000000000000040  0x01 0x0000000000000040  0x01 0x0000000000000040  0x01 0x0000000000000040  0x01 0x0000000000000040  0x01 0x0000000000000040  0x01 0x0000000000000040  0x01 0x0000000000000040  0x01 0x0000000000000040  0x01 0x0000000000000040  0x01 0x0000000000000040  0x01 0x0000000000000040  0x01 0x0000000000000040  0x01 0x0000000000000040  0x01 0x0000000000000040  0x01 0x0000000000000040  0x01 0x0000000000000040  0x01 0x0000000000000040  0x01 0x0000000000000040  0x01 0x0000000000000040  0x01 0x0000000000000040  0x01 0x0000000000000040  0x01 0x0000000000000040  0x01 0x0000000000000040  0x01 0x0000000000000040  0x01 0x0000000000000040  0x01 0x0000000000000040  0x01 0x0000000000000040  0x01 0x0000000000000040  0x01 0x0000000000000040  0x01 0x0000000000000040  0x01 0x0000000000000040  
0x0041       0b0       0b1      0b0      0b0       0b0  0x00 0xXXXXXXXX00000000  0x00 0x000000XXXXXXXXXX  0x00 0xXXXXXXXXXXXXXXXX  0x01 0xXXXXXXXX00000000  0x01 0x0000000000000000  0x01 0xXXXXXXXX00000000  0x01 0x0000000000000000  0x01 0xXXXXXXXX00000000  0x01 0x0000000000000000  0x01 0xXXXXXXXX00000000  0x01 0x0000000000000000  0x01 0xXXXXXXXX00000000  0x01 0x0000000000000000  0x01 0xXXXXXXXX00000000  0x01 0x0000000000000000  0x01 0xXXXXXXXX00000000  0x01 0x0000000000000000  0x0X 0xXXXXXXXXXXXXXXXX  0x01 0x0000000000000041  0x01 0x0000000000000041  0x01 0x0000000000000041  0x01 0x0000000000000041  0x01 0x0000000000000041  0x01 0x0000000000000041  0x01 0x0000000000000041  0x01 0x0000000000000041  0x01 0x0000000000000041  0x01 0x0000000000000041  0x01 0x0000000000000041  0x01 0x0000000000000041  0x01 0x0000000000000041  0x01 0x0000000000000041  0x01 0x0000000000000041  0x01 0x0000000000000041  0x01 0x0000000000000041  0x01 0x0000000000000041  0x01 0x0000000000000041  0x01 0x0000000000000041  0x01 0x0000000000000041  0x01 0x0000000000000041  0x01 0x0000000000000041  0x01 0x0000000000000041  0x01 0x0000000000000041  0x01 0x0000000000000041  0x01 0x0000000000000041  0x01 0x0000000000000041  0x01 0x0000000000000041  0x01 0x0000000000000041  0x01 0x0000000000000041  0x01 0x0000000000000041  0x01 0x0000000000000041  0x01 0x0000000000000041  0x01 0x0000000000000041  0x01 0x0000000000000041  
0x0042       0b0       0b1      0b0      0b0       0b0  0x00 0xXXXXXXXX00000000  0x00 0x000000XXXXXXXXXX  0x00 0xXXXXXXXXXXXXXXXX  0x01 0xXXXXXXXX00000000  0x01 0x0000000000000000  0x01 0xXXXXXXXX00000000  0x01 0x0000000000000000  0x01 0xXXXXXXXX00000000  0x01 0x0000000000000000  0x01 0xXXXXXXXX00000000  0x01 0x0000000000000000  0x01 0xXXXXXXXX00000000  0x01 0x0000000000000000  0x01 0xXXXXXXXX00000000  0x01 0x0000000000000000  0x01 0xXXXXXXXX00000000  0x01 0x0000000000000000  0x0X 0xXXXXXXXXXXXXXXXX  0x01 0x0000000000000042  0x01 0x0000000000000042  0x01 0x0000000000000042  0x01 0x0000000000000042  0x01 0x0000000000000042  0x01 0x0000000000000042  0x01 0x0000000000000042  0x01 0x0000000000000042  0x01 0x0000000000000042  0x01 0x0000000000000042  0x01 0x0000000000000042  0x01 0x0000000000000042  0x01 0x0000000000000042  0x01 0x0000000000000042  0x01 0x0000000000000042  0x01 0x0000000000000042  0x01 0x0000000000000042  0x01 0x0000000000000042  0x01 0x0000000000000042  0x01 0x0000000000000042  0x01 0x0000000000000042  0x01 0x0000000000000042  0x01 0x0000000000000042  0x01 0x0000000000000042  0x01 0x0000000000000042  0x01 0x0000000000000042  0x01 0x0000000000000042  0x01 0x0000000000000042  0x01 0x0000000000000042  0x01 0x0000000000000042  0x01 0x0000000000000042  0x01 0x0000000000000042  0x01 0x0000000000000042  0x01 0x0000000000000042  0x01 0x0000000000000042  0x01 0x0000000000000042  
0x0043       0b0       0b1      0b0      0b0       0b0  0x00 0xXXXXXXXX00000000  0x00 0x000000XXXXXXXXXX  0x00 0xXXXXXXXXXXXXXXXX  0x01 0xXXXXXXXX00000000  0x01 0x0000000000000000  0x01 0xXXXXXXXX00000000  0x01 0x0000000000000000  0x01 0xXXXXXXXX00000000  0x01 0x0000000000000000  0x01 0xXXXXXXXX00000000  0x01 0x0000000000000000  0x01 0xXXXXXXXX00000000  0x01 0x0000000000000000  0x01 0xXXXXXXXX00000000  0x01 0x0000000000000000  0x01 0xXXXXXXXX00000000  0x01 0x0000000000000000  0x0X 0xXXXXXXXXXXXXXXXX  0x01 0x0000000000000043  0x01 0x0000000000000043  0x01 0x0000000000000043  0x01 0x0000000000000043  0x01 0x0000000000000043  0x01 0x0000000000000043  0x01 0x0000000000000043  0x01 0x0000000000000043  0x01 0x0000000000000043  0x01 0x0000000000000043  0x01 0x0000000000000043  0x01 0x0000000000000043  0x01 0x0000000000000043  0x01 0x0000000000000043  0x01 0x0000000000000043  0x01 0x0000000000000043  0x01 0x0000000000000043  0x01 0x0000000000000043  0x01 0x0000000000000043  0x01 0x0000000000000043  0x01 0x0000000000000043  0x01 0x0000000000000043  0x01 0x0000000000000043  0x01 0x0000000000000043  0x01 0x0000000000000043  0x01 0x0000000000000043  0x01 0x0000000000000043  0x01 0x0000000000000043  0x01 0x0000000000000043  0x01 0x0000000000000043  0x01 0x0000000000000043  0x01 0x0000000000000043  0x01 0x0000000000000043  0x01 0x0000000000000043  0x01 0x0000000000000043  0x01 0x0000000000000043  
0x0044       0b0       0b1      0b0      0b0       0b0  0x00 0xXXXXXXXX00000000  0x00 0x000000XXXXXXXXXX  0x00 0xXXXXXXXXXXXXXXXX  0x01 0xXXXXXXXX00000000  0x01 0x0000000000000000  0x01 0xXXXXXXXX00000000  0x01 0x0000000000000000  0x01 0xXXXXXXXX00000000  0x01 0x0000000000000000  0x01 0xXXXXXXXX00000000  0x01 0x0000000000000000  0x01 0xXXXXXXXX00000000  0x01 0x0000000000000000  0x01 0xXXXXXXXX00000000  0x01 0x0000000000000000  0x01 0xXXXXXXXX00000000  0x01 0x0000000000000000  0x0X 0xXXXXXXXXXXXXXXXX  0x01 0x0000000000000044  0x01 0x0000000000000044  0x01 0x0000000000000044  0x01 0x0000000000000044  0x01 0x0000000000000044  0x01 0x0000000000000044  0x01 0x0000000000000044  0x01 0x0000000000000044  0x01 0x0000000000000044  0x01 0x0000000000000044  0x01 0x0000000000000044  0x01 0x0000000000000044  0x01 0x0000000000000044  0x01 0x0000000000000044  0x01 0x0000000000000044  0x01 0x0000000000000044  0x01 0x0000000000000044  0x01 0x0000000000000044  0x01 0x0000000000000044  0x01 0x0000000000000044  0x01 0x0000000000000044  0x01 0x0000000000000044  0x01 0x0000000000000044  0x01 0x0000000000000044  0x01 0x0000000000000044  0x01 0x0000000000000044  0x01 0x0000000000000044  0x01 0x0000000000000044  0x01 0x0000000000000044  0x01 0x0000000000000044  0x01 0x0000000000000044  0x01 0x0000000000000044  0x01 0x0000000000000044  0x01 0x0000000000000044  0x01 0x0000000000000044  0x01 0x0000000000000044  
0x0045       0b0       0b1      0b0      0b0       0b0  0x00 0xXXXXXXXX00000000  0x00 0x000000XXXXXXXXXX  0x00 0xXXXXXXXXXXXXXXXX  0x01 0xXXXXXXXX00000000  0x01 0x0000000000000000  0x01 0xXXXXXXXX00000000  0x01 0x0000000000000000  0x01 0xXXXXXXXX00000000  0x01 0x0000000000000000  0x01 0xXXXXXXXX00000000  0x01 0x0000000000000000  0x01 0xXXXXXXXX00000000  0x01 0x0000000000000000  0x01 0xXXXXXXXX00000000  0x01 0x0000000000000000  0x01 0xXXXXXXXX00000000  0x01 0x0000000000000000  0x0X 0xXXXXXXXXXXXXXXXX  0x01 0x0000000000000045  0x01 0x0000000000000045  0x01 0x0000000000000045  0x01 0x0000000000000045  0x01 0x0000000000000045  0x01 0x0000000000000045  0x01 0x0000000000000045  0x01 0x0000000000000045  0x01 0x0000000000000045  0x01 0x0000000000000045  0x01 0x0000000000000045  0x01 0x0000000000000045  0x01 0x0000000000000045  0x01 0x0000000000000045  0x01 0x0000000000000045  0x01 0x0000000000000045  0x01 0x0000000000000045  0x01 0x0000000000000045  0x01 0x0000000000000045  0x01 0x0000000000000045  0x01 0x0000000000000045  0x01 0x0000000000000045  0x01 0x0000000000000045  0x01 0x0000000000000045  0x01 0x0000000000000045  0x01 0x0000000000000045  0x01 0x0000000000000045  0x01 0x0000000000000045  0x01 0x0000000000000045  0x01 0x0000000000000045  0x01 0x0000000000000045  0x01 0x0000000000000045  0x01 0x0000000000000045  0x01 0x0000000000000045  0x01 0x0000000000000045  0x01 0x0000000000000045  
